:020000040800F2
:10000000A01500204D010008C103000831030008BD
:1000100000000000000000000000000000000000E0
:10002000000000000000000000000000E5030008E0
:1000300000000000000000000B010008C9040008D7
:100040007D0100087D0100087D0100087D01000898
:100050007D0100087D0100087D0100087D01000888
:100060007D0100087D0100087D0100087D01000878
:100070007D0100087D0100087D0100087D01000868
:100080007D0100087D010008000000007D010008DE
:100090007D0100087D0100087D0100087D01000848
:1000A0007D0100087D0100087D0100087D01000838
:1000B0007D010008000000007D0100080000000034
:1000C0000348854600F092F800480047A305000861
:1000D000A0150020084B19680868203080F30988B3
:1000E000022080F31488BFF36F8F3FBCAE4608BC7C
:1000F00004BC62B6184700001C000020EFF310801B
:1001000072B6704780F310887047EFF309800E4B8A
:100110001A6820381060F0C044464D4656465F4687
:10012000F0C008B572B601F0A9F962B60CBC11684E
:1001300008681030F0C8A046A946B246BB4680F316
:1001400009882038F0C818471C0000200C4880F3AC
:1001500008880C480168090E0B4A914205D10B48EA
:100160000B4901600B480C4901600C4880470C4862
:100170000047FEE7FEE7FEE7FEE7FEE7FEE70000DA
:10018000A0150020040000001F000000181002400D
:10019000010000000000014000000000ED04000824
:1001A000C100000803460B439B0703D009E008C9C0
:1001B000121F08C0042AFAD203E00B780370401C17
:1001C000491C521EF9D27047D2B201E00270401CA5
:1001D000491EFBD270470022F6E710B513460A46C7
:1001E00004461946FFF7F0FF204610BD064C0125D6
:1001F000064E05E0E36807CC2B430C3C98471034CF
:10020000B442F7D3FFF760FFA01E0008C01E00082D
:100210001CB500200121034680220091019011A10C
:10022000124801F0FBFB00200221034680220091CE
:1002300001900FA1104801F0F1FB002003210346BB
:100240008022009101900DA10E4801F0E7FB0020F3
:10025000042103468022009101900BA10C4801F07B
:10026000DDFB1CBD5461736B31000000651000089C
:100270005461736B32000000811000085461736B8D
:10028000330000009D1000085461736B34000000BF
:10029000B910000810B500F04DF810BDF0B50A46D1
:1002A00000210023002400BF3DE001258D402B46A6
:1002B00015681D402C469C4234D11579012D02D081
:1002C0001579022D16D185684F000326BE40B5432F
:1002D000856055794E00B5408668354385608588D0
:1002E00001268E40B5438580858896798E40B6B2CA
:1002F0003543858005684F000326BE40B543056041
:1003000015794E00B540066835430560C5684F0055
:100310000326BE40B543C560D5794E00B540C668DA
:100320003543C560491C1029BFD3F0BD0185704716
:1003300000BFFEE71CB50121480400F043F8FF2090
:1003400001300090012168460171032141710021B3
:100350008171C17169460920C006FFF79FFF012026
:100360004002009069460920C006FFF797FF012070
:100370008002009069460920C006FFF78FFF012028
:10038000C002009069460920C006FFF787FFFF21E1
:1003900001310920C006FFF7C9FF012149020920E8
:1003A000C006FFF7C3FF012189020920C006FFF73D
:1003B000BDFF0121C9020920C006FFF7B7FF1CBD20
:1003C00070470000002905D0054A52690243044BDA
:1003D0005A6104E0024A52698243014B5A617047F4
:1003E00000100240704700000CB500200190009002
:1003F000314800680121090408432F49086000BF03
:100400002D48006801214904084000900198401CD3
:1004100001900098002804D1052109030198884221
:10042000EED125480068012149040840002802D087
:100430000120009001E0002000900098012839D1AF
:1004400011201E4908601C4840681B494860084646
:1004500040684860084640687F21C90388431649C0
:100460004860084640681121090408431249486061
:10047000084600680121090608430F49086000BFCB
:100480000D4800680121490608400028F8D00A48B4
:10049000406880088000084948600846406802219A
:1004A00008430549486000BF034840680C210840E4
:1004B0000828F9D10CBD00000010024000200240C5
:1004C00010B5FFF7E7FE10BD10B5FFF717FE0446A5
:1004D00001F0EAFA002803D0012000070249486031
:1004E0002046FFF70FFE10BD00ED00E010B51B48E1
:1004F0000068012108431949086008464068184906
:1005000008401649486008460068164908401349E3
:100510000860084600680121890488430F49086083
:10052000084640683F21090488430C494860084652
:10053000C06A00090001C8620846006BFF215431FF
:100540008843064908630846406B400840004863FA
:1005500000208860FFF748FF10BD00000010024037
:100560000CB8FFF8FFFFF6FE30B47446641E257821
:10057000641CAB4204D3635D5B00E31830BC1847D6
:100580001D46F8E702E008C8121F08C1002AFAD188
:1005900070477047002001E001C1121F002AFBD103
:1005A000704710B5FFF78CFFFFF732FE00F022FF17
:1005B000002010BDF8B505460E46174807681748D5
:1005C0000068001D00F03AFD681C002808D1002ECC
:1005D00006D012480168091D114800F0A6FD1AE076
:1005E0007C190E4800684460BC4207D20B48016881
:1005F000091D0C48006800F07DFD0CE0074801680B
:10060000091D0948006800F075FD0848006884422B
:1006100001D206480460F8BD300000201C00002014
:100620006011002024000020200000204C00002049
:1006300010B5044600F086FD22480068401C2149A0
:10064000086021480068002808D11F480460084657
:10065000006801280ED100F0D7F90BE01B480068B4
:10066000002807D118480068C06AE16A884201D8AA
:100670001548046016480068401C15490860084683
:100680000068E0631349E06A0968884202D91149A9
:10069000E06A08601422E16A51430F4A8818211D5C
:1006A00000F043FD00F05CFD08480068002807D01A
:1006B00005480068C06AE16A884201D200F0A4FDE2
:1006C00010BD00002C0000201C000020380000207D
:1006D0004800002034000020AC10002010B500F0CD
:1006E00031FD1148006800281BD1104800F0F2FCD1
:1006F0000F4800F0EFFC0D480E4908600C480E4909
:10070000086000220C21052000F014FF0649086053
:1007100008460068002804D008A10348006800F0DB
:100720007FFD00F01DFD10BD600000207411002051
:1007300088110020580000205C000020546D725188
:100740000000000070B525E000F090FE144800683D
:10075000002801D1012000E00020054601F0CAFA7E
:10076000002D17D100F0EEFC0D48C068C468201DB4
:1007700000F064FC0B480068401E0A4908600A4803
:100780000068401E0849086000F0EAFC204600F0BE
:1007900063F800BF044800680028D5D170BD000090
:1007A0004C1100202C0000202800002070B50446C9
:1007B0000D46206C00280ED0216CE0684018E060E7
:1007C0006168E068884201D32068E0602846226CB6
:1007D000E168FFF7E7FC70BDF8B504460F46154623
:1007E00000200090A66B206C002809D1206800280A
:1007F0002ED1606801F0F6F900900020606027E0DB
:10080000002D0FD13946226CA068FFF7CBFC216C7C
:10081000A0684018A0606168A068884218D320686A
:10082000A06015E03946226CE068FFF7BBFC216C44
:10083000E068401AE0602168E068884203D2216CD9
:100840006068401AE060022D02D1002E00D0761EB2
:10085000701CA0630098F8BD10B50446206B00F032
:1008600093FC204600F090FC10BD00000146094AB0
:1008700012681268002A01D1012200E000220A60F9
:100880000A68002A04D1034A1268D268106800E09E
:10089000002070475800002030B501231B03174883
:1008A0004407640F002C05D0C01DC008C000134CC5
:1008B000041B1B1B0246124C22600024104D6C606E
:1008C000D0180838C008C0000E4C206000240D4D20
:1008D0002D686C600B4D2D682C601146441A4C60DD
:1008E000084C24680C60084D4C682C60074D4C681F
:1008F0002C600124E407064D2C6030BD6C00002004
:100900000000002008000020100000200C00002043
:100910001400002000BFFFF715FF034800680128FE
:10092000F9D900F071FCF6E7AC100020FFB581B0FA
:1009300006460D4617460A9C002D01D1246000E0B2
:100940002760E66325640121204600F0E1FE4C218A
:100950000498085505B0F0BDFFB581B00F460A9E5A
:100960000C9C039A9100A522206BFFF72DFC216BB4
:100970000398401E8000081800900098C008C0002E
:10098000009000984007400F002801D1012000E0AE
:100990000020002802D172B600BFFEE7002508E063
:1009A000795D204634304155785D002800D102E061
:1009B0006D1C052DF4D300BF002138200155052EF4
:1009C00000D30426E66266640020A064201D00F0C7
:1009D0008EFB2046183000F08AFB24610520801B26
:1009E000A06164620020E064002150200155049A57
:1009F0000199009800F012FB20600B98002801D0AC
:100A00000B98046005B0F0BD10B5002406E0142179
:100A100061430E4A881800F05DFB641C052CF6D378
:100A20000B4800F057FB0B4800F054FB0A4800F05D
:100A300051FB0A4800F04EFB094800F04BFB04480C
:100A40000849086003480849086010BDAC10002040
:100A50001011002024110020381100204C1100201A
:100A600060110020200000202400002010B5014665
:100A7000164800E0006803688B42FBD302464368D7
:100A80009B188B4204D143684C681B194360014694
:100A90000A464B689B180468A34211D10C4C0368AA
:100AA0002468A34208D04B68046864681B194B6033
:100AB00003681B680B6005E0054B1B680B6001E0D9
:100AC00003680B60884200D0016010BD0000002068
:100AD00008000020F8B504460D4616461F460020C3
:100AE000009065602461B5420CD8F01BA169884272
:100AF00002D30120009011E0211D0948006800F098
:100B0000F9FA0BE0BE4204D2BD4202D301200090AC
:100B100004E0211D0348006800F0ECFA0098F8BDDD
:100B20005C0000205800002070B5054600F00AFB6C
:100B3000A86B002801D1012400E0002400F010FB84
:100B4000204670BD70B5054600F0FCFAA86BE96B55
:100B5000884201D1012400E0002400F001FB20467E
:100B600070BD0000F8B505460F4613480068C06820
:100B7000C468201D00F062FAE069012817D1A0695D
:100B800041192B463A462046FFF7A4FF00280ED015
:100B9000002003462A4601460090204601F046F90F
:100BA0000646002E02D172B600BFFEE700BF204607
:100BB000616A8847F8BD00005800002070B586B013
:100BC00060E0039800285DDB059C6069002801D186
:100BD000012000E00020002802D1201D00F02EFAA4
:100BE00002A800F0AFF8054603980300FFF7BCFC2D
:100BF0000A0A06082C2E4407092D2F4800BF00BF03
:100C000000BF00BF0498A269811803462A46204607
:100C1000FFF760FF002816D02046616A8847E06928
:100C2000012810D1002000900498A16942180023E7
:100C30001946204601F0FAF80646002E02D172B697
:100C400000BFFEE700BF1CE000BF1AE000BF049831
:100C5000A061A069002801D0012000E00020002848
:100C600002D172B600BFFEE7A06941192B462A46A1
:100C70002046FFF72FFF04E0204600F085FA00E051
:100C800000BF00BF00231A4603A90448006800F013
:100C900079FC002895D106B070BD000060000020EE
:100CA000F8B505460C4600F0E1FB684600F04AF84E
:100CB00006460098002822D1002C08D1B54206D85B
:100CC00001F018F831462846FFF74CFF19E0002CD8
:100CD00008D00C4800680068002801D1012000E01D
:100CE00000200446A91B22460748006800F0AEFA1F
:100CF00001F000F8002804D100F086FA01E000F0CD
:100D0000F9FFF8BD5C000020600000200B49096875
:100D10000968002901D1012100E00021002904D047
:100D20000021C943064A116006E004490968C96800
:100D3000C868034A41681160704700002000002025
:100D40004C00002070B5044600F0A8FE0546074898
:100D50000068854204D200F015F80120206001E00F
:100D60000020206001480560284670BD6800002012
:100D7000024803494861072008617047FF52070095
:100D800000E000E0FEB52BE020480068C068056880
:100D90001E480068C068C468201D00F04FF9204656
:100DA000616A8847E06901281AD1A0694619AE42F4
:100DB00007D966602461211D1448006800F09AF983
:100DC0000EE0002003462A4601460090204601F02E
:100DD0002DF80746002F02D172B600BFFEE700BF14
:100DE0000A4800680068002801D1012000E00020C6
:100DF0000028C9D0054800680190054800680349EB
:100E00000860034901980860FEBD000058000020FA
:100E10005C00002007480068401C002801D1012028
:100E200000E00020002802D172B600BFFEE772B6D3
:100E300000BFFEE71800002008B500BF6846FFF7B6
:100E400015FD044620460099FFF72AFFFFF7B6FE7E
:100E5000F4E770B5044600F075F94520055713E036
:100E6000606A002801D1012000E00020002808D19C
:100E70002046243000F0FAFE002803D000F02EFABD
:100E800000E003E0681E45B2002DE9DC00BF002150
:100E9000C9434520015500F063F900F053F944209F
:100EA000055713E02069002801D1012000E000204F
:100EB00000280AD12046103000F0D8FE002801D0CA
:100EC00000F00CFA681E45B200E001E0002DE9DCFC
:100ED00000BF0021C9434420015500F041F970BD15
:100EE000F8B504460020009000F0C0FA3E480068C3
:100EF000002801D1FFF7D0FC3C48006820400028C2
:100F000061D1002C15D008346007400F002810D0A4
:100F10006007400F0821081A04196007400F0028D5
:100F200001D1012000E00020002802D172B600BFEC
:100F3000FEE7002C47D02E480068844243D82D4E4F
:100F40003046056801E02E462D686868A04202D24E
:100F500028680028F7D124480068854233D03068DB
:100F600008300090286830606868001B102813D98A
:100F70002F197807400F002801D1012000E0002040
:100F8000002802D172B600BFFEE76868001B7860D7
:100F90006C603846FFF76AFD154968680968081AE9
:100FA000134908600846006813490968884203D25B
:100FB0000F480068104908600C49686809680843D0
:100FC00068600020286000F095FE00984007400F00
:100FD000002801D1012000E00020002802D172B6D3
:100FE00000BFFEE70098F8BD0800002014000020B4
:100FF0000C000020000000201000002006480068BF
:10100000002806D00449096808464830896C491C04
:1010100001600148006870471C000020001F012388
:101020001B060360001F0160001F034B03601438A0
:101030000260203870470000150E000801460A695A
:101040004B68886898608B68486858605068884228
:1010500001D188685060002008611068401E10604F
:101060001068704700BF0920C006808AFF21013147
:1010700048400921C9068882322000F00DF9F2E7C4
:1010800000BF0920C006808A012149024840092189
:10109000C9068882642000F0FFF8F2E700BF09204B
:1010A000C006808A0121890248400921C906888238
:1010B000962000F0F1F8F2E700BF0920C006808A10
:1010C0000121C90248400921C9068882C82000F0D0
:1010D000E3F8F2E70146083141600021C94381602D
:1010E00001460831C16001610021016070470021A3
:1010F0000161704710B502460B685C1C002C01D1E1
:10110000106907E01046083000E040684468246831
:101110009C42FAD944684C604C68A1608860416088
:101120000A611468641C146010BD42684A609368C8
:101130008B60936859609160086103685B1C036071
:101140007047000072B605480068401C03490860FB
:10115000BFF34F8FBFF36F8F704700001800002060
:1011600008480068002802D172B600BFFEE70548B3
:101170000068401E0349086008460068002800D146
:1011800062B670471800002070B506463546002E3E
:1011900035D0083D2C461A49606809680840002887
:1011A00001D0012000E00020002802D172B600BF6B
:1011B000FEE72068002801D1012000E0002000287F
:1011C00002D172B600BFFEE70D49606809680840A9
:1011D000002814D02068002811D1094960680968E6
:1011E0008843606000F042F9064960680968401869
:1011F000044908602046FFF739FC00F07BFD70BD14
:10120000140000200C000020012000070349486062
:10121000BFF34F8FBFF36F8F7047000000ED00E00A
:1012200010B5024600200BE0C300074CE358002B2A
:1012300005D1C300E150C3001B195A6002E0401CF5
:101240000828F1D300BF10BD6C100020F8B505468A
:101250000E4617462C46FFF775FF44210857401CE1
:10126000002802D100214420015545210857401C87
:10127000002802D1002145200155FFF771FFA06B26
:10128000002805D13A4631462046243000F042F885
:101290002046FFF7DEFDF8BD70B504460025002CA2
:1012A00014D00D480068002801D1012000E0002082
:1012B000002802D172B600BFFEE700F0D7F8002187
:1012C0002046FFF777F900F015FD0546002D01D106
:1012D000FFF79AFF70BD0000540000200120014973
:1012E000086070474000002070B504460D46002C91
:1012F00002D172B600BFFEE70548016818312046EA
:10130000FFF7F8FE01212846FFF754F970BD0000F1
:101310001C00002070B505460E461446002D02D173
:1013200072B600BFFEE70748016818312846FFF78C
:10133000FCFE002C01D00026F64321463046FFF784
:1013400039F970BD1C00002070B505462C46002DF3
:1013500039D01D49E06A0968C96A884233D2A06958
:10136000C00FC007002805D117480068C06A0521D2
:10137000081AA0611422E06A5043144A8018616977
:10138000814201D1012000E00020002817D0201D5B
:10139000FFF754FE0C480068C06AE0620C49E06A3E
:1013A0000968884202D90A49E06A08601422E16AA1
:1013B0005143064A8818211DFFF7B7FE03E0024893
:1013C0000068C06AE06270BD1C000020AC10002004
:1013D00034000020002802D172B600BFFEE70349A6
:1013E00009680160024909684160704744000020B3
:1013F000300000201CB5164800210B464022009109
:10140000019014A1154800F009FB0446012C02D1FB
:1014100000F0E8FC0446012C0DD172B60020C04358
:101420000F49086001200F49086000200E4908603C
:1014300000F064F80AE0601C002801D0012000E000
:101440000020002802D172B600BFFEE71CBD0000DC
:101450005000002049444C450000000015090008D8
:101460004C000020380000203000002002480068B6
:10147000401C014908607047540000201A48006869
:10148000002803D00120194908602CE000201749EA
:1014900008601748016805E0002902D172B600BF54
:1014A000FEE7491E14204843124A1058002801D173
:1014B000012000E000200028EED114224A430D4B09
:1014C000D01842685268426002460832436893422C
:1014D00002D14268526842604268D268064B1A6084
:1014E0000348016000BF7047540000204000002006
:1014F00034000020AC1000201C00002010B50B4868
:10150000006AFF2109040843084908620846006A86
:10151000FF210906084305490862FFF729FC00205E
:1015200003490860FEF7D6FD002010BD00ED00E085
:1015300018000020F7B582B005460E46002D01D0F8
:10154000012000E00020002802D172B600BFFEE7B3
:10155000002E01D1002701E02F4677433846503056
:10156000FFF7BEFC0446002C09D020465030019005
:10157000009431462846049B019AFFF7D7F920468C
:1015800005B0F0BDFFB585B005460E4600200490BD
:101590002C46002C02D172B600BFFEE7002E02D10D
:1015A000206C002801D1012000E00020002802D199
:1015B00072B600BFFEE700F05FFA002802D107987C
:1015C000002801D1012000E00020002802D172B6DD
:1015D00000BFFEE700BFFFF7B5FDA06B01900198CB
:1015E000002837D0E76831462046FFF7DFF8089833
:1015F000002819D10198401EA0632068002802D15C
:10160000FFF7FCFC60602069002801D1012000E0A8
:101610000020002819D12046103000F027FB0028B8
:1016200013D0FFF7F1FD10E0E760606A002801D1F8
:10163000012000E00020002807D12046243000F0DF
:1016400015FB002801D0FFF7DFFDFFF789FD012022
:1016500009B0F0BD0798002803D1FFF781FD0020F5
:10166000F6E70498002804D102A8FFF7B3FE012092
:101670000490FFF775FDFFF7F9FEFFF763FD4421C6
:101680000857401C002802D1002144200155452163
:101690000857401C002802D1002145200155FFF7C2
:1016A0005FFD07A902A800F07FF9002824D1204699
:1016B000FFF73AFA002819D02068002806D1FFF772
:1016C00041FD6068FFF740FEFFF74AFD20462430E9
:1016D0000799FFF709FE2046FFF7BBFB00F00AFB66
:1016E000002800D077E7FFF78FFD74E72046FFF76B
:1016F000B0FB00F0FFFA6EE72046FFF7AAFB00F010
:10170000F9FA2046FFF710FA0028EBD000209FE7F7
:1017100070B505460E462C46002C02D172B600BFAD
:10172000FEE7FFF70FFD216CE06B4843216840188E
:1017300060600020A0632068A060E06B401E216C08
:10174000484321684018E0600021C9434420015506
:1017500045200155002E10D12069002801D101201B
:1017600000E00020002810D12046103000F07EFA62
:1017700000280AD0FFF748FD07E020461030FFF7A9
:10178000A9FC20462430FFF7A5FCFFF7E9FC012067
:1017900070BDFFB583B006461D460020029034465A
:1017A000002C02D172B600BFFEE70498002802D1D7
:1017B000206C002801D1012000E00020002802D187
:1017C00072B600BFFEE7022D02D1E06B012801D105
:1017D000012000E00020002802D172B600BFFEE721
:1017E00000F04AF9002802D10598002801D1012013
:1017F00000E00020002802D172B600BFFEE700BF63
:10180000FFF7A0FCA06BE16B884201D3022D1FD132
:101810002A4620460499FEF7DFFF0746606A002843
:1018200001D1012000E00020002808D1204624300A
:1018300000F01CFA002806D0FFF7E6FC03E0002FBA
:1018400001D0FFF7E1FCFFF78BFC012007B0F0BDF2
:101850000598002803D1FFF783FC0020F6E70298E3
:10186000002804D16846FFF7B5FD01200290FFF77C
:1018700077FCFFF7FBFDFFF765FC44210857401C90
:10188000002802D100214420015545210857401C61
:10189000002802D1002145200155FFF761FC05A970
:1018A000684600F081F8002819D12046FFF74AF970
:1018B00000280ED0204610300599FFF715FD204670
:1018C000FFF7C7FA00F016FA002899D1FFF79CFC41
:1018D00096E72046FFF7BDFA00F00CFA90E72046A5
:1018E000FFF7B7FA00F006FA0020AFE7FFB583B0C4
:1018F000064617461D463446002C02D172B600BF7C
:10190000FEE70498002802D1206C002801D10120B4
:1019100000E00020002802D172B600BFFEE7022DD1
:1019200002D1E06B012801D1012000E00020002855
:1019300002D172B600BFFEE7FEF7E0FB0190A06B9C
:10194000E16B884201D3022D26D145200157009139
:101950002A4620460499FEF73FFF0098401C0028C5
:1019600012D1606A002801D1012000E00020002887
:101970000FD12046243000F079F9002809D0002F3B
:1019800007D00120386004E00098401C41B2452097
:1019900001550120029001E0002002900198FEF71D
:1019A000B1FB029807B0F0BD70B504460D46002C9F
:1019B00002D172B600BFFEE7002D02D172B600BFA1
:1019C000FEE7FFF7BFFB134802682868401C0028A9
:1019D00001D1002619E0104920680968884204D026
:1019E0006068904201D801260FE06068101A2968EB
:1019F000884209D228686168511A401A2860204636
:101A0000FFF7E8FC002600E00126FFF7A9FB3046BF
:101A100070BD00003000002044000020FFB585B0FC
:101A20001746B800FFF75CFA0646002E0BD054208C
:101A3000FFF756FA0446002C01D0266304E0304636
:101A4000FFF7A2FB00E00024002C10D000220F9929
:101A50000E986B4613C303923A46089B0699059865
:101A6000FEF77AFF2046FEF7E3FD012501E00025A1
:101A7000ED43284609B0F0BD06490968002901D1A7
:101A8000012006E004490968002901D1022000E094
:101A900000207047380000205400002001490868E9
:101AA0007047000030000020F8B500200090424848
:101AB0000068002872D141480068451C3F48056015
:101AC000002D1CD13E4800680068002801D101208B
:101AD00000E00020002802D172B600BFFEE73848BF
:101AE0000768384800683649086036480760364855
:101AF0000068401C34490860FFF708F900BF33480C
:101B0000006885423DD300BF2D480068006800286A
:101B100001D1012000E00020002804D00020C043B3
:101B20002A4908602CE026480068C068C4686668D6
:101B3000B54202D22548066022E0201DFFF77EFA5A
:101B4000A06A002803D020461830FFF777FA204912
:101B5000E06A0968884202D91D49E06A08601422D7
:101B6000E16A51431B4A8818211DFFF7DEFA1A4922
:101B7000E06A0968C96A8842C6D301200090C3E7B9
:101B800000BF15480068C06A14214843114908582D
:101B9000012801D90120009005E0FFE70F48006807
:101BA000401C0E4908600E480068002801D0012042
:101BB00000900098F8BD0000540000203000002084
:101BC0002000002024000020440000204C000020C1
:101BD00034000020AC1000201C0000203C0000203D
:101BE0004000002070B505462C460026002D35D05B
:101BF0001B480068844201D1012000E00020002839
:101C000002D172B600BFFEE7A06C002802D172B606
:101C100000BFFEE7A06C401EA064616CE06A8842D1
:101C20001CD0A06C002819D1201DFFF707FA606CAA
:101C3000E0620521E06A081AA0610A49E06A0968C1
:101C4000884202D90749E06A08601422E16A5143D8
:101C5000054A8818211DFFF768FA0126304670BD35
:101C60001C00002034000020AC10002070B5064697
:101C7000F068C468002C02D172B600BFFEE72046AF
:101C80001830FFF7DBF915480068002813D1201D34
:101C9000FFF7D4F91249E06A0968884202D910496D
:101CA000E06A08601422E16A51430E4A8818211D37
:101CB000FFF73BFA04E0214618310B48FFF735FAED
:101CC0000A49E06A0968C96A884204D901250120E5
:101CD0000749086000E00025284670BD5400002038
:101CE00034000020AC100020381100201C0000201F
:101CF0004000002070B5002400263248006800280B
:101D000002D172B600BFFEE7FFF71CFA2D4800684B
:101D1000401E2C4908600846006800284DD12A481A
:101D20000068002849D022E02848C068C4682046DE
:101D30001830FFF783F9201DFFF780F92449E06A86
:101D40000968884202D92249E06A08601422E16ADF
:101D50005143204A8818211DFFF7E7F91E49E06A20
:101D60000968C96A884202D301201C4908601748E3
:101D70000068002801D1012000E000200028D3D015
:101D8000002C01D0FEF7C2FF15480568002D0DD0CC
:101D900000BFFFF789FE002802D001200F4908602C
:101DA0006D1E002DF5D100200D4908600B4800681C
:101DB000002802D00126FFF727FAFFF7D1F93046B5
:101DC00070BD0000540000202C00002038110020BD
:101DD00034000020AC1000201C0000204000002037
:101DE0003C0000201CB50024FEF778FC0A4800687F
:101DF00000280AD0094802210023502200910190B6
:101E000007A10948FFF70AFE0446002C02D172B66A
:101E100000BFFEE720461CBD6000002064000020DB
:101E2000546D722053766300390E0008F0B585B00A
:101E300004460D4616461F4600200390002C02D192
:101E400072B600BFFEE715480068002822D0009552
:101E500001960294062D15DAFFF70EFE022808D12E
:101E6000002369460D480A9A0068FFF792FC039028
:101E700010E000231A46694608480068FFF789FC0D
:101E8000039007E000233A46694604480068FFF7DC
:101E90002DFD0390039805B0F0BD00006000002008
:101EA000C01E0008000000206C000000840500082F
:101EB0002C1F00086C000020341500009405000859
:101EC0000000000000000000000000000000000012
:101ED0000000000000000000AAAAAAAA000000005A
:101EE00000000000000000000000000000000000F2
:101EF00000000000000000000000000000000000E2
:101F000000000000000000000000000000000000D1
:101F100000000000000000000000000000000000C1
:0C1F2000000000000000000000000000B5
:04000005080000C12E
:00000001FF
