:020000040800F2
:10000000484D002029020008832F00081D25000804
:10001000812F00086D050008B935000800000000B8
:10002000000000000000000000000000872F000812
:100030001D06000800000000852F0008892F000819
:10004000430200084302000843020008430200087C
:10005000430200084302000843020008430200086C
:10006000430200084302000843020008430200085C
:10007000430200084302000843020008430200084C
:100080007D050008890500082104000843020008D6
:10009000430200084302000843020008430200082C
:1000A000430200084302000843020008430200081C
:1000B00043020008353000084302000843020008EC
:1000C00043020008430200084302000843020008FC
:1000D0004302000843020008AD350008430200084F
:1000E00043020008430200084302000843020008DC
:1000F00043020008430200084302000843020008CC
:1001000043020008430200084302000843020008BB
:1001100043020008430200084302000843020008AB
:100120009505000843020008430200084302000846
:10013000430200084302000843020008430200088B
:10014000710500084302000843020008430200084A
:10015000430200084302000843020008430200086B
:10016000430200084302000843020008430200085B
:100170004302000843020008430200080000000098
:10018000430200084302000800F002F800F03CF8C7
:100190000AA090E8000C82448344AAF10107DA45E2
:1001A00001D100F031F8AFF2090EBAE80F0013F0F8
:1001B000010F18BFFB1A43F00103184788340000F1
:1001C000A8340000103A24BF78C878C1FAD8520782
:1001D00024BF30C830C144BF04680C6070470000C1
:1001E0000023002400250026103A28BF78C1FBD840
:1001F000520728BF30C148BF0B6070471FB503F0DE
:100200000BFA1FBD10B510BD00F0CFF81146FFF777
:10021000F5FF03F0E2F900F0EDF803B4FFF7F2FFA9
:1002200003BC00F0F5F80000094880470948004782
:10023000FEE7FEE7FEE7FEE7FEE7FEE7FEE7FEE796
:10024000FEE7FEE704480549054A064B70470000F3
:10025000253000088901000848040020484D00208E
:10026000482C0020482C002053EA020C00F0698042
:100270002DE9F04B4FF00006002B1FBFB3FA83F5BA
:1002800003FA05F424FA05F65E4012BF1643B2FAEB
:1002900082F502FA05F4C5F120051EBF22FA05FC1D
:1002A00044EA0C04203556EA044C4FEA144418BFC3
:1002B000641C4FF000084FF00009904271EB030CF2
:1002C00039D3002919BFB1FA81F701FA07F6B0FA5C
:1002D00080F700FA07F6C7F120071EBF20FA07FCD7
:1002E00046EA0C062037B6FBF4FCA7EB0507103FE7
:1002F00007F01F0BCBF120060CFA0BFB2CFA06F6CD
:1003000044BFB3460026202FA4BF5E464FF0000B2B
:100310005BEA060C08BF4FF0010B19EB0B09ABFBB6
:10032000027C48EB0608C01B06FB02CC0BFB03CC8F
:1003300071EB0C01C1E70B46024641464846BDE859
:10034000F08B13B54FF000004FF00001AFF30080C9
:10035000BDE81C4070474FF0000200B513469446BC
:100360009646203922BFA0E80C50A0E80C50B1F10D
:100370002001BFF4F7AF090728BFA0E80C5048BF21
:100380000CC05DF804EB890028BF40F8042B08BFBF
:10039000704748BF20F8022B11F0804F18BF00F8BB
:1003A000012B7047704770477047754600F02CF876
:1003B000AE4605006946534620F00700854618B052
:1003C00020B5FFF73FFFBDE820404FF000064FF09B
:1003D00000074FF000084FF0000B21F00701AC467A
:1003E000ACE8C009ACE8C009ACE8C009ACE8C00999
:1003F0008D46704710B50446AFF300802046BDE837
:100400001040FFF70ABF000000487047E4030020D7
:1004100001491820ABBEFEE726000200704700002D
:1004200010B5054800F008FA044800F005FABDE8E8
:100430001040034800F000BA1800002060000020BF
:10044000A8000020464910B54A6822F440324A60AC
:100450004A6843681A434A6001684A6822F4807215
:100460004A6001684A68036942EA03224A600168F7
:100470004A6822F040724A6001684A6883681A43F9
:100480004A6001688A6822F400628A6001688A68AA
:10049000C3681A438A60816A6FF07062D142016852
:1004A0008A6822F070628A6001688A680CD0836A68
:1004B0001A438A6001688A6822F040528A600168A3
:1004C0008A68C36A1A4301E022F040528A600168D8
:1004D0008A6822F002028A6001688A68037E42EA22
:1004E00043028A6090F82010002901684A680FD002
:1004F00042F400624A6001684A6822F460424A603D
:1005000001684A68174C436A04EB43331A4301E01D
:1005100022F400624A600168CA6A22F47002CA6268
:100520000168CA6A838B104C04EB03531A43CA62F6
:1005300001688A6822F400728A6001688A6890F80B
:10054000303042EA43228A6001688A6822F480627D
:100550008A6001688A68406942EA8020886010BD2C
:100560000023014000E0FFFF0000F0FFFEE7000075
:10057000014800F0D4BA000050010020014800F00A
:100580002BBD000024030020014800F025BD000021
:1005900084030020014800F01FBD0000F00000208F
:1005A00001681823CAB2103AB2FBF3F2054B6FF39D
:1005B0000901032A9B5CC36500D9091D81650846B2
:1005C000704700002236000810B5014600208B69F4
:1005D0008A6A4FF0C07453B1B3F5005F15D072B1A1
:1005E000012A0CD0022A0AD0032A09D104E01AB148
:1005F000012A06D0022A03D1C96AC90100D5012007
:1006000010BDC96AA142FAD010BD002AF7D0012A54
:10061000F2D0022AF3D0032AF3D010BD704772B68D
:10062000FEE7704710B590F83C20012A1FD0012248
:1006300000F83C2F0F4A536823F01F0353605368A0
:100640000C6823435360536823F44043536053685A
:100650004C6823435360536823F4706353605368BA
:1006600089680B43536000210170084610BD0220C9
:1006700010BD00000023014010B590F83C20012A75
:100680002AD0012280F83C200A7C012A02685368A3
:1006900024D023F04003536002685368114C234078
:1006A0005360026853680C682343536003684A68C8
:1006B0005A6203688A689A620268536823F01F03CB
:1006C000536002685368898989B20B4353600021E3
:1006D00080F83C10084610BD022010BD43F04003D6
:1006E000D9E70000FFFD3FFF78B50024009490F8A3
:1006F0003C20012A19D0012280F83C200A680723F7
:100700000568092A13D9EE680A3A02EB42029340BF
:100710009E43EE600B788A680A3B03EB43039A40E2
:100720000368DD682A43DA6010E0022078BD2E6994
:1007300002EB420293409E432E610B788A6803EBE2
:1007400043039A4003681D692A431A614A681F23BC
:10075000072A13D205686E6B521E02EB8202934089
:100760009E436E630B790A885B1E92B203EB830390
:100770009A4003685D6B2A435A6327E005680D2A97
:1007800012D22E6BD21F02EB820293409E432E6345
:100790000B790A88DB1F92B203EB83039A4003684C
:1007A0001D6B2A431A6311E0EE6A0D3A02EB8202D6
:1007B00093409E43EE620B790A880D3B92B203EBA5
:1007C00083039A400368DD6A2A43DA62164B0568A0
:1007D000144A9D4206D10D68122D03D1556845F487
:1007E0008005556005689D4218D10B68102B01D01B
:1007F000112B13D1536843F4000353600968102987
:100800000CD10A490A4A0968B1FBF2F101EB8101F6
:10081000490000E0491E00910029FBD180F83C40CE
:10082000002078BD0023014000200140140000207A
:1008300040420F007047704770B504460068066874
:10084000456816F0020F05F020012AD049B3216C4B
:10085000C90603D4216C41F400712164816811F050
:10086000405F17D1217EA9B9C16A11F4700F02D07F
:10087000816849050ED4416821F020014160206C57
:1008800020F480702064206CC00403D4206C40F0FD
:10089000010020642046FFF7CDFF21686FF01200B1
:1008A000086016F0040F05F0800132D089B3206C87
:1008B000C00603D4206C40F4005020642068816896
:1008C00011F4401F1ED1816B11F4401F02D08168CA
:1008D000490517D44168490514D4816811F0405F77
:1008E00010D1217E71B9416821F080014160206CF6
:1008F00020F480502064206CC00503D4206C40F0AC
:10090000010020642046FFF78CFE21686FF00C0088
:10091000086016F0010F05F040010FD071B120689A
:100920000068C0070AD0206C40F480302064204664
:1009300000F043F821686FF00100086016F0200F06
:1009400005F080610ED000290CD0606C40F00200F0
:10095000606420686FF0200505602046FFF76BFF9C
:100960002068056070BD70B504004FF0000503D02D
:10097000206C002610B107E0012070BD204600F079
:100980001DF8666484F83C60206CC00610D4206CAE
:1009900020F4885040F0020020642046FFF752FD0A
:1009A0006664206C20F0020040F00100206400E04A
:1009B000012584F83C60284670BD7047F0B587B0CB
:1009C000064614216846FFF7C6FC4C494A4F336877
:1009D00000254A4814390324494ABB422FD10368F1
:1009E00043F480730360006800F480700590086829
:1009F00040F0040008600868694600F004000590B3
:100A000030208DE83100104600F020FC3E4C3D487F
:100A1000C4E900050015A560C4E903504000606109
:100A20008000C4E906050001C4E90805204600F07D
:100A3000A3FB08B1FFF7F3FDB463A66336E0334EC2
:100A4000B3423DD1036843F400730360006800F4CF
:100A500000700590086840F004000860086800F025
:100A600004000590086840F001000860086800F084
:100A700001000590086840F00200086008680094D2
:100A800000F00200059069461046CDE9014500F0EE
:100A9000DDFBFF208DE8310069461D4800F0D6FBE4
:100AA000009469461B48CDE9014521E0002202215E
:100AB000122000F039FD122000F028FD07B0F0BD33
:100AC000154EB342FAD1036843F4806303600068B3
:100AD00000F480600590086840F004000860086831
:100AE000694600F0040005900C208DE831001046A6
:100AF00000F0ACFBDAE7000000200140443802407F
:100B00000008024010640240F00000200021014073
:100B100000000240000402400022014070472DE91D
:100B2000F05F0546006800244669D0F804908768A5
:100B3000D0F80CB0D0F810A0D0F81880F10748D049
:100B4000F90714D001218160B80703D5284600F0C9
:100B5000BBF90CE0780702D54FF4006407E03807D2
:100B600002D54FF4805402E0284600F0ACF9F805B5
:100B700016D529684FF480708860B80503D52846DB
:100B800000F0A4F90CE0780502D544F4005407E025
:100B9000380502D544F4804402E0284600F095F977
:100BA000F80316D529684FF480308860B80303D560
:100BB000284600F08DF90CE0780302D544F4004497
:100BC00007E0380302D544F4803402E0284600F000
:100BD0007EF9300707D55FEACB6004D5296810207D
:100BE00044F40074C86070074FF0080707D55FEA47
:100BF0000B7004D52868C760284600F05FF9B0077D
:100C000006D52868C068800702D0284600F057F94A
:100C1000700607D55FEACA6004D52968102044F43D
:100C200080640861B00607D55FEA0A7004D52868B9
:100C30000761284600F044F9F00606D528680069E7
:100C4000800702D0284600F03CF9B00308D55FEADF
:100C5000C96005D5296810204860284600F032F99F
:100C6000F00307D55FEA097004D528684760284675
:100C700000F02FF9300446D55FEA497040D5F00501
:100C800004D55FEAC87001D044F00104B00504D572
:100C90005FEA887001D544F00204700504D55FEA6C
:100CA000487001D544F00404300529D518F0700FC0
:100CB00026D008F07000402815D006DC102809D096
:100CC00020280AD0302816D10AE050280ED06028FB
:100CD00011D10EE044F008040DE044F010040AE0E5
:100CE00044F0200407E044F0400404E044F08004B1
:100CF00001E044F480742868816921F07001816109
:100D0000296804204860002C05D0686A2043686286
:100D10002846FFF703FFBDE8F09F70B5040003D03D
:100D200094F8200010B104E0012070BD204600F0CE
:100D300081F82068016841F00101016000F084FB46
:100D40000546052604E000F07FFB401B0A2811D869
:100D500020684068C007F6D02068016821F00201D1
:100D6000016000F071FB05460BE000F06DFB401BDD
:100D70000A2806D9606A40F40030606284F8206076
:100D8000D2E7206840688007EFD4207E01282068E1
:100D900001683DD021F080010160607E012820685B
:100DA000016838D021F040010160A07E0128206850
:100DB000016833D021F020010160E07E0128206825
:100DC00001682ED041F010010160207F01282068C9
:100DD000016829D021F008010160607F01282068A6
:100DE000016824D021F004010160D4E90201084324
:100DF000D4E90412114308436168491E084321687D
:100E0000C86100206062012084F82000002070BDCD
:100E100041F08001C0E741F04001C5E741F0200109
:100E2000CAE721F01001CFE741F00801D4E741F013
:100E30000401D9E710B586B0044614216846FFF7CF
:100E40008AFA1B492068884230D11A48002102687A
:100E500042F080620260026802F0806205920268DD
:100E600042F000720260006800F0007005901148C6
:100E70001038026842F002020260006800F00200CE
:100E800005904FF4405000900220CDE901010390FD
:100E9000092004906946084800F0D8F9002203218F
:100EA000402000F041FB402000F030FB06B010BDB8
:100EB000006800404038024000040240704770471C
:100EC000704770477047704770477047704770476A
:100ED0007047704710B5040002D0607910B106E089
:100EE000012010BD00202071204600F005F80120EF
:100EF0006071002010BD000008B5006806498842F6
:100F000008D10648016841F480510160006800F48E
:100F10008050009008BD0000003002403038024090
:100F20002DE9F0410446876D00F08EFA064694F8EC
:100F300035000025022806D08020606584F83450F2
:100F40000120BDE8F0812068016821F016010160F0
:100F50002068416921F080014161206C08B9A06CD2
:100F600020B12068016821F0080101602068016853
:100F700021F0010101600CE000F066FA801B0528F9
:100F800007D920206065032084F8350084F83450A8
:100F9000D7E720680068C007EED194F85C103F20C6
:100FA0008840B860012084F8350084F8345000206F
:100FB000C7E790F83510022903D080214165012050
:100FC0007047052180F835100068016821F00101A3
:100FD00001600020704700002DE9F84304464FF0FF
:100FE0000009CDF8009063484FF41651A56D0068D4
:100FF000B0FBF1F72E6894F85C10082000FA01F1BC
:1010000031420FD021680A6852070BD50A6822F0D6
:1010100004020A6094F85C108840A860606D40F09B
:101020000100606594F85C104FF0010808FA01F0C7
:10103000304208D021684969090604D5A860606D6E
:1010400040F00200606594F85C1004208840304253
:1010500008D021680968890704D5A860606D40F050
:101060000400606594F85C1010208840304218D06D
:1010700021680968090714D5A86020680168490338
:1010800004D50068000308D5A16C07E00168C90514
:1010900003D4016821F008010160216C09B12046E8
:1010A000884794F85C1020208840304231D0216875
:1010B0000968C9062DD5A86094F835000528206870
:1010C000016806D0490347D5006800031DD4616C50
:1010D0001CE021F0160101602068416921F08001C7
:1010E0004161206C08B9A06C20B12068016821F032
:1010F0000801016094F85C103F208840A86084F8E3
:10110000358084F83490216D1FE0E16B09B12046F1
:101110008847606D00282BD0606DC00714D0052073
:1011200084F835002068016821F001010160009811
:10113000401C0090B84203D820680068C007F6D170
:1011400084F8358084F83490E16C002910D001B027
:101150002046BDE8F04308470168C905D5D40168B9
:1011600021F01001016084F8358084F83490CCE7D8
:10117000BDE8F883140000202DE9F041044600F09A
:1011800063F906465CB1022084F83500002584F836
:1011900034502068016821F0010101600DE0012058
:1011A000BDE8F08100F050F9801B052805D920200A
:1011B0006065032084F83500F2E720680068C00706
:1011C000F0D12268116820480140D4E90103184396
:1011D000D4E903363343184363691843A3691843BA
:1011E000E3691843236A18430843616A042903D159
:1011F000D4E90B1319430843106020684069666AFC
:1012000020F0070130460E43012704280CD1A06AC4
:101210000643E06A40B12046FFF7D6F920B14020EE
:10122000606584F83570BAE7206846612046FFF7AC
:10123000B7F994F85C203F2191408160656584F89E
:1012400035700020ACE700003F8010F02DE9F84F2A
:10125000DFF8BCA10022012503264FF00F090AF197
:10126000040BAAF1040E00BF0B6805FA02F4234038
:10127000A34270D10F7907F00307012F01D0022F8D
:1012800016D187684FEA420806FA08FC27EA0C07DD
:10129000D1F80CC00CFA08FC4CEA070CC0F808C0E6
:1012A0004768A7430C79C4F3001494403C4344605E
:1012B0000C79E443A4070AD0C4684FEA420C06FA4A
:1012C0000CF7BC438F6807FA0CF72743C7600C790B
:1012D00004F00304022C12D1D40800EB840CDCF8D7
:1012E00020405707FF0E09FA07F824EA0804D1F84E
:1012F000108008FA07F848EA0408CCF8208004684F
:101300004FEA420C06FA0CF7BC430F7907F00307CB
:1013100007FA0CF7274307604C6814F4403F70D07D
:101320003C4C276847F480472760246822F0030775
:1013300004F480440094384C07EB040CDCF80848B3
:1013400097074FEA177809FA08F7BC43334FB842BA
:1013500002D1002724E054E0314FB84201D10127E7
:101360001EE0304FB84201D1022719E02E4FB8429B
:1013700001D1032714E02D4FB84201D104270FE01B
:101380002B4FB84201D105270AE02A4FB84201D1BC
:10139000062705E0284FB84201D1072700E00827BB
:1013A00007FA08F72743CCF80878DAF800405746E0
:1013B000D1F804C09C435FEACC2C00D51C433C60B0
:1013C000DBF800405F46D1F804C09C435FEA8C2CF8
:1013D00000D51C433C60DEF800407746D1F804C0DD
:1013E0009C435FEA8C3C00D51C433C60084F083F9F
:1013F0003C68D1F804C09C435FEACC3C00D51C4358
:101400003C60521C102AFFF42FAFBDE8F88F00009B
:10141000083C0140443802400030014000000240D6
:101420000004024000080240000C0240001002408C
:101430000014024000180240001C02400AB1816101
:1014400070470904FBE7000001488068704700000E
:1014500008000020024881680278114481607047CA
:10146000080000200B4810B5016841F400710160CC
:10147000016841F480610160016841F4807101609C
:10148000032000F071F8032000F006F800F024F8C3
:10149000002010BD003C024070B50D4D04464FF4D5
:1014A0007A712878B1FBF0F00A490968B1FBF0F0D5
:1014B00000F00CFB48B9102C07D200222146501E28
:1014C00000F032F800206C6070BD012070BD00009B
:1014D00008000020140000200B4882B0016841F48D
:1014E00080410160006800F4804000900648001FC1
:1014F000016841F080510160006800F08050009068
:10150000052002B000F030B844380240002809DB62
:1015100000F01F02012191404009800000F1E0200D
:10152000C0F8001170470000F0B40E4B1B680C4669
:10153000C3F30223C3F10705042D00D90425191DA7
:10154000072901D2002300E0DB1E012606FA05F17F
:10155000491E214099409E40761E16403143F0BC02
:1015600002F02BB80CED00E0064900F00702086815
:101570004FF6FF03184040EA0220034A1043086078
:10158000704700000CED00E00000FA052DE9F0477F
:101590000E46050065D0DFF81481D8F80000F7B2D8
:1015A00000F00700B04207D288F80070D8F80000B9
:1015B00000F00700B04254D128683D4C810712D595
:1015C000400703D5206840F4E050206028780007E9
:1015D00003D5206840F4604020602068A96820F0AE
:1015E000F000084320602878C0072DD03049686893
:1015F0000839012812D0022813D0032811D0096815
:10160000890700292DDA216821F0030101432160B7
:10161000FFF71AFF814641F2883A0EE00968890314
:10162000EFE709688901ECE7FFF70EFFA0EB09017E
:10163000514502D90320BDE8F0872068696800F0B1
:101640000C00B0EB810FEFD1D8F80010404601F04C
:101650000701B14207D90770006800F00700B042E7
:1016600001D00120E7E72878400705D52068E96820
:1016700020F4E050084320602878000706D5206851
:10168000296920F4604040EAC100206000F038F889
:101690002168084AC1F30311515CC840064908603B
:1016A00006480068FFF7F8FE0020C4E7003C02404F
:1016B000083802402A360008140000200C000020E0
:1016C0000448054900680968044AC1F38221515C55
:1016D000C840704714000020083802403A3600081D
:1016E0000448054900680968044AC1F34231515C65
:1016F000C840704714000020083802403A360008FD
:10170000154810B5006810F00C02144813D04110B1
:10171000042A0FD0082A0ED10F4C241F22682368F8
:1017200002F03F025B0207D52068C0F38810A0FBDF
:10173000010106E0084610BD2168C1F38811A1FB34
:1017400000010023FEF790FD2168C1F30141491C0F
:101750004900B0FBF1F010BD083802400024F4004D
:101760002DE9F84F04006ED02078DFF84C93C007C5
:10177000A9F104054AD009F104000168C1F381010F
:10178000012908D00068C0F3810002280AD1D9F8E5
:101790000000400206D52868800337D5606800281D
:1017A000E1D033E06068B0F5803F10D0B0F5A02FF5
:1017B000286810D020F480302860286820F4802029
:1017C00028606068A8B1FFF73FFE06460DE0286874
:1017D00040F48030F4E740F480202860F7E700BF51
:1017E000FFF732FE801B642873D828688003F7D582
:1017F0000CE0FFF729FE064605E000BFFFF724FED8
:10180000801B6428F0D828688003F7D42078DFF89C
:10181000AC8280074FF0000A3ED5A748001D016842
:1018200011F00C0F08D00068C0F3810002280BD122
:10183000D9F80000400207D42868800716D5E06870
:10184000012800D112E033E1E068B8B10120C8F806
:101850000000FFF7F9FD064605E000BFFFF7F4FDC5
:10186000801B0228C0D828688007F7D5286821691E
:1018700020F0F80040EAC10028600DE0C8F800A0A0
:10188000FFF7E2FD064604E0FFF7DEFD801B0228BD
:101890001FD828688007F7D42078000722D5864F04
:1018A00087486169703771B101210160FFF7CCFD94
:1018B000064604E0FFF7C8FD801B022809D83868F7
:1018C0008007F7D50EE0C0F800A0FFF7BDFD064683
:1018D00005E082E0FFF7B8FD801B02287DD838685C
:1018E0008007F7D42078400768D5DFF8CCB100270F
:1018F0000BF13C0BDBF80000C0000BD4DBF8001050
:1019000041F08051CBF80010DBF80000012700F017
:10191000805000906B4E3068C00510D4306840F4A1
:1019200080703060FFF790FD009005E0FFF78CFDC0
:101930000099401A022850D83068C005F6D55E4E8E
:10194000A0686C3601280FD00528306810D020F030
:1019500001003060306820F004003060A068B8B149
:10196000FFF772FD00900FE0306840F00100F4E7EF
:1019700040F004003060F7E7FFF766FD0099411A78
:1019800041F28830814266D830688007F4D50EE095
:10199000FFF75AFD009007E0FFF756FD0099411A46
:1019A00041F28830814256D830688007F4D42FB194
:1019B000DBF8001021F08051CBF80010A069C8B30B
:1019C0003D49091D0968C1F3810102294AD0022855
:1019D000504607D0C8F8600000E03CE0FFF734FD57
:1019E00004463BE04746C8F86000FFF72DFD064679
:1019F00005E000BFFFF728FD801B02282BD82868D0
:101A00008001F7D4D4E907010843A16A2E4A4908A6
:101A100002EB0141626A41EA8211084394F82C10FA
:101A200040EA0161C9F8001001203866FFF70CFD9B
:101A3000044606E03EE000BFFFF706FD001B02285B
:101A400009D828688001F7D534E000BFFFF7FCFC17
:101A5000001B022802D90320BDE8F88F2868800106
:101A6000F4D427E00128F7D0D9F80000E26900F4A7
:101A7000800191421CD1226A00F03F01914217D1AE
:101A800047F6C071626A0140B1EB821F10D1A26AB1
:101A90004FF0FF3300F4403103EB5202B1EB024F41
:101AA00006D194F82C1000F07060B0EB016F01D0FB
:101AB0000120D1E70020CFE7043802400000474270
:101AC000800E4742007000400000FFFF10B5401E2E
:101AD000B0F1807F01D3012010BD4FF0E0246061A0
:101AE0000F21601701F069FD0020A061072020612F
:101AF000002010BD7047704710B590F83C20012AB7
:101B000022D0012280F83C20CA688C6822F44072FE
:101B100022434C6822F4806222430C6822F4006263
:101B200022430C6922F4805222434C6922F4005271
:101B30002243C969002322F480420A4301684A64AF
:101B400080F83C30002010BD022010BD70B590F828
:101B50003C20012A32D0012480F83C40022280F847
:101B60003D2003685A689D6822F070060A68324377
:101B70005A60134B02689A4214D0B2F1804F11D0D0
:101B8000104B9A420ED0104B9A420BD00F4B9A42F8
:101B900008D00F4B9A4205D00E4B9A4202D00E4B02
:101BA0009A4204D1496825F080031943916080F876
:101BB0003D40002180F83C10084670BD022070BDF9
:101BC000000001400004004000080040000C0040FC
:101BD00000040140004001400018004010B504001E
:101BE00003D094F83D0010B107E0012010BD0020A3
:101BF00084F83C00204600F01FF8022084F83D00E5
:101C0000211D206801F01CFA012084F8460084F8A8
:101C10003E0084F83F0084F8400084F8410084F8D6
:101C2000420084F8430084F8440084F8450084F8B6
:101C30003D00002010BD000008B501682148224A7F
:101C4000814205D1106840F00100106010681EE06C
:101C50001D48001FB1F1804F14D01C4B99421AD17E
:101C6000016841F0020101600068002200F00200FA
:101C7000009011461D20FFF757FCBDE808401D20CD
:101C8000FFF744BC016841F001010160006800F009
:101C90000100009008BD0E4B994207D1016841F048
:101CA00004010160006800F00400F2E70948814285
:101CB000F0D1106840F002001060106800F00200DF
:101CC000E7E7000000000140443802400004004003
:101CD000000800400004014070B5044690F83C0044
:101CE0000025012817D0012684F83C60022084F8E2
:101CF0003D002068826822F0770222F47F428260F1
:101D00000868502838D00DDC20284FD005DC90B36F
:101D1000102811D14AE0022070BD302846D040285A
:101D20000AD13BE060282FD070280DD0B0F5805F3D
:101D300003D0B0F5005F12D0012584F83D6000208B
:101D400084F83C00284670BDCB68D1E901212068A9
:101D500001F0DAF92068816841F0770109E0CB6889
:101D6000D1E90121206801F0CFF92068816841F4B0
:101D700080418160E1E719E0CA684968206801F0A4
:101D8000DDFA5021206806E0CA684968206801F041
:101D9000E6FA6021206801F0C1F9CEE7CA68496817
:101DA000206801F0CBFA40212068F4E72268014660
:101DB0001046F0E7704770B50446006801694FF0BF
:101DC0000005C943890715D4C168C943890711D4DF
:101DD000E91E016101202077206880698007204684
:101DE00002D0FFF7E7FF04E000F0F4F8204600F02F
:101DF00086F9257720680169C943490717D4C16866
:101E0000C943490713D46FF0040101610220207710
:101E10002068806910F4407F204602D0FFF7CAFF97
:101E200004E000F0D7F8204600F069F92577206833
:101E30000169C943090716D4C168C943090712D407
:101E40006FF008010161042020772068C0698007D5
:101E5000204602D0FFF7AEFF04E000F0BBF82046BA
:101E600000F04DF9257720680169C943C90617D4E8
:101E7000C168C943C90613D46FF01001016108207D
:101E800020772068C06910F4407F204602D0FFF719
:101E900091FF04E000F09EF8204600F030F925772D
:101EA00020680169C943C90708D1C168C943C90786
:101EB00004D1891E0161204600F022F920680169E1
:101EC000C943090609D4C168C943090605D46FF09E
:101ED000800101612046FFF70DFE20680169C943BA
:101EE000490609D4C168C943490605D46FF04001C9
:101EF0000161204600F030F920680169C943890674
:101F00000BD4C168C943890607D46FF02001016171
:101F10002046BDE87040FFF7EEBD70BD30B587B01C
:101F2000044614216846FEF716FA234D2368002163
:101F3000224802220324AB4212D1036843F001037A
:101F400003600068CDE9021400F0010005904FF431
:101F50007060CDE90002012004906946184812E043
:101F6000184DAB4213D1036843F0080303600068C7
:101F700000F008000590A8140090CDE90121CDE9FA
:101F8000031269461048FFF761F907B030BD0F4DE5
:101F9000AB42FAD1036843F0040303600068CDE963
:101FA000021400F004000590C020CDE9000269464B
:101FB00004940748E7E70000000001403038024081
:101FC0000000024000080040000C024000040140F4
:101FD00000080240704770B5044690F83C000026A7
:101FE0000D4601280FD0012084F83C006AB1042A74
:101FF0001DD0082A2FD00C2A3FD00126002084F8BB
:102000003C00304670BD022070BD206801F08EF8A3
:102010002068816941F0080181612068816921F0AF
:1020200004018161206881692A69114311E02068F7
:1020300001F0ACF82068816941F400618161206899
:10204000816921F480618161206881692A6941EA9E
:1020500002218161D2E7206801F0CEF82068C169D1
:1020600041F00801C1612068C16921F00401C1612A
:102070002068C1692A69114311E0206801F0F0F875
:102080002068C16941F40061C1612068C16921F41F
:102090008061C1612068C1692A6941EA0221C16188
:1020A000ACE710B5040003D094F83D0010B107E090
:1020B000012010BD002084F83C00204600F01EF8EE
:1020C000022084F83D00211D206800F0B9FF0120A6
:1020D00084F8460084F83E0084F83F0084F840000D
:1020E00084F8410084F8420084F8430084F84400F6
:1020F00084F8450084F83D00002010BD704770470B
:10210000704770B5044690F83C00012812D00125B4
:1021100084F83C50022084F83D00204601F0C8F8C5
:1021200001004FF0000007D084F83D5084F83C00D7
:10213000012070BD022070BD2168CA6822F04002F3
:10214000CA602168CA6822F48042CA6084F83D509F
:1021500084F83C00002070BD704770477047000055
:10216000F8B5016804460868CA684B6910F00F0F9B
:102170004FF0000559D003F0010602F49077374381
:1021800065D0C10705D0D10503D5216C41F001010F
:102190002164410705D5D90703D0216C41F0020124
:1021A0002164810705D5D90703D0216C41F00401D2
:1021B0002164010707D502F02001314303D0216CCF
:1021C00041F008012164216C00293AD0800604D531
:1021D000900602D5204601F003F920684069216C81
:1021E000C0F38010090700D460B3204601F0D1F895
:1021F00020684069400621D52068143050E8001F4F
:1022000021F0400140E80012002AF5D1A06BA8B1EE
:102210006C490165A06BFEF7CCFE002811D0A06BC5
:10222000016D01B0BDE8F040084783060FD5930665
:102230000DD52046BDE8F84001F0D2B82046FFF7A2
:102240008DFFF8BD2046FFF789FF2564F8BD266B9A
:102250002023012E79D1C60677D5D60675D5086814
:10226000486800904869400640D5A16B08684068FE
:102270000004000CEAD0A28D8242E7D9E085C8694B
:10228000B0F5807F2DD020680C3050E8001F21F47D
:10229000807140E80012002AF5D12068143050E81F
:1022A000001F21F0010140E80012002AF5D120684A
:1022B000143050E8001F21F0400140E80012002ACD
:1022C000F5D184F83E30256320680C3050E8001FBB
:1022D00021F0100140E80012002AF5D1A06BFEF7B2
:1022E0001FFEA08DE18D401A81B229E0A08DE18D05
:1022F000401A81B2E08D0028A8D00029A6D020681D
:102300000C3050E8002F22F4907240E80026002E96
:10231000F5D12068143050E8002F22F0010240E887
:102320000026002EF5D184F83E30256320680C305D
:1023300050E8002F22F0100240E80023002BF5D1D6
:102340002046FFF70AFFF8BDFFE705062BD5150667
:1023500029D594F83D002128F5D1A068B0F5805F1B
:1023600001D12069B0B1206A411C21622168007846
:102370004860E08C401E0004000CE084E3D120683B
:10238000C16821F08001C1602068C16841F040014E
:10239000C160D8E7206A0088C0F308004860206A5E
:1023A000801C2062E5E74006CDD55006CBD5CA6833
:1023B000204622F04002CA6084F83D3000F0ADF8BB
:1023C000C1E700008333000870B5040004D094F81E
:1023D0003D00002510B106E0012070BD84F83C509E
:1023E000204600F023F8242084F83D002068C168CE
:1023F00021F40051C160204601F052F820680169C3
:1024000021F4904101612068416921F02A01416174
:102410002068C16841F40051C1602564202084F81F
:102420003D0084F83E00002070BD00002DE9F0431F
:1024300087B0064614216846FDF78DFF31493068A4
:1024400088425BD130480025016841F400310160C9
:10245000006800F4003005902B481038016841F006
:10246000080101600068012100F00800059060206B
:1024700000900220CDE901010390072004906946F5
:102480002248FEF7E3FE234C21484FF0006720600E
:10249000C4E901754FF48068C4E90358801565618B
:1024A000C4E906504FF40039C4E908952046FEF708
:1024B00063FE08B1FEF7B3F8B463A663154C144885
:1024C00060341830E4E802074020A4E821011148F4
:1024D00044F814596030A561C4E907596562FEF7F4
:1024E0004BFE08B1FEF79BF87463022203212620FD
:1024F000A663FFF719F82620FFF708F807B0BDE834
:10250000F08300000044004040380240000C0240CC
:10251000886002402403002070477047FEE70000F7
:1025200070B58EB000240A940B94182104A80C9462
:10253000FDF711FF5C4800940194029459490394FB
:10254000016001254FF480310561C0E90114057671
:1025500080F820405549C0E90A140C26C661C460C1
:1025600080F830404561FEF7FEF908B1FEF757F8F4
:1025700016200A904FF48040CDE90B040AA94A487E
:10258000FEF750F808B1FEF74AF84FF40000049047
:1025900040F6FF70CDE905048DF8205004A94248AB
:1025A000FEF76AF808B1FEF73AF80E24CDE90045C7
:1025B00069463D480295FEF797F808B1FEF72FF8F7
:1025C0000F250220CDE9005069463748FEF78CF808
:1025D00008B1FEF724F80320CDE9004069463248EF
:1025E000FEF782F808B1FEF71AF80420CDE9005092
:1025F00069462D48FEF778F808B1FEF710F8052077
:10260000CDE9004069462848FEF76EF808B1FEF7AC
:1026100006F80620CDE9005069462348FEF764F825
:1026200008B1FDF7FCFF0720CDE9004069461E48D0
:10263000FEF75AF808B1FDF7F2FF0820CDE9005087
:1026400069461948FEF750F808B1FDF7E8FF092080
:10265000CDE9004069461448FEF746F808B1FDF799
:10266000DEFF0A20CDE9005069460F48FEF73CF82E
:1026700008B1FDF7D4FF0B20CDE9004069460A48B8
:10268000FEF732F808B1FDF7CAFFCDE900566946FA
:102690000548FEF729F8002801D0FDF7C0FF0EB06D
:1026A00070BD000000200140180000200100000F54
:1026B0007FB500254A480095019502954749039545
:1026C000016001244FF480310461C0E901150476F2
:1026D00080F820500C26C661C56080F830504461F7
:1026E000FEF741F908B1FDF79AFFCDE900546946BC
:1026F0003B480294FDF7F8FF08B1FDF790FF009406
:102700000224694636480194FDF7EEFF08B1FDF753
:1027100086FF00940324694631480194FDF7E4FFE5
:1027200008B1FDF77CFF0094042469462C4801940D
:10273000FDF7DAFF08B1FDF772FF00940524694642
:1027400027480194FDF7D0FF08B1FDF768FF00941A
:102750000624694622480194FDF7C6FF08B1FDF73B
:102760005EFF0094072469461D480194FDF7BCFFF5
:1027700008B1FDF754FF00940824694618480194F5
:10278000FDF7B2FF08B1FDF74AFF0094092469463E
:1027900013480194FDF7A8FF08B1FDF740FF00942E
:1027A0000A2469460E480194FDF79EFF08B1FDF723
:1027B00036FF00940B24694609480194FDF794FF05
:1027C00008B1FDF72CFFCDE9004669460448FDF746
:1027D0008BFF002801D0FDF722FF7FBD00210140C3
:1027E0006000002070B58AB0182104A8FDF7B3FD81
:1027F00000265448009601960296514903960160BE
:1028000001254FF480310561C0E90116057680F895
:1028100020600C24C660C46180F830604561FEF71A
:10282000A2F808B1FDF7FBFE4FF40000049040F65B
:10283000FF70CDE905068DF8205004A94148FDF749
:102840001BFF08B1FDF7EBFECDE9004569463D48A9
:102850000295FDF749FF08B1FDF7E1FE0D250220C5
:10286000CDE9005069463748FDF73EFF08B1FDF756
:10287000D6FE0320CDE9004069463248FDF734FF1B
:1028800008B1FDF7CCFE0420CDE9005069462D4883
:10289000FDF72AFF08B1FDF7C2FE0520CDE9004093
:1028A00069462848FDF720FF08B1FDF7B8FE06206D
:1028B000CDE9005069462348FDF716FF08B1FDF742
:1028C000AEFE0720CDE9004069461E48FDF70CFF2B
:1028D00008B1FDF7A4FE0820CDE90050694619486B
:1028E000FDF702FF08B1FDF79AFE0920CDE900408F
:1028F00069461448FDF7F8FE08B1FDF790FE0A207E
:10290000CDE9005069460F48FDF7EEFE08B1FDF72E
:1029100086FE0B20CDE9004069460A48FDF7E4FE3B
:1029200008B1FDF77CFECDE9005469460548FDF786
:10293000DBFE002801D0FDF772FE0AB070BD00007A
:1029400000220140A8000020104810B50E49016087
:102950000621416000214FF4A0228160C0E90312EA
:102960004FF4C00242610176012242768176C1763F
:1029700001774177FEF7D1F9002803D0BDE8104078
:10298000FDF74DBE10BD0000006800405001002062
:10299000074910B5054808600846FEF79BFA00286D
:1029A00003D0BDE81040FDF73ABE10BD0030024034
:1029B00000000020154808B5016841F400110160CD
:1029C000016801F400110091016841F48001016087
:1029D0000068032200F48000009011461020FEF7EA
:1029E000A3FD1020FEF792FD032211461120FEF7F1
:1029F0009BFD1120FEF78AFD002211463820FEF7CC
:102A000093FDBDE808403820FEF780BD3038024015
:102A1000F0B587B014216846FDF79DFC34480024CA
:102A2000016841F080010160016801F080010591B9
:102A3000016841F004010160016801F004010591A1
:102A4000016841F001010160016801F00101059197
:102A5000016841F002010160016801F00201059185
:102A6000016841F010010160016801F01001059159
:102A7000016841F00801016000681E4E00F0080086
:102A80004EF203050590002229463046FEF7D6FC9B
:102A9000194F00224FF44F413846FEF7CFFC4FF458
:102AA000C070CDE90004694630460294FEF7CEFBC3
:102AB00000950125CDE90154694630460394FEF79F
:102AC000C5FB2802CDE900050220CDE902046946D4
:102AD0003846FEF7BBFB4FF44E400090CDE9015461
:102AE000694638460394FEF7B1FB07B0F0BD00001D
:102AF0003038024000100240000C024030B59BB05C
:102B0000002514951595169514210FA81795FDF716
:102B100022FC18951C2168461995FDF71CFC202104
:102B200007A8FDF718FC464C44482060032060606D
:102B30006020A06040F27750C4E90305656120463B
:102B4000A561FFF74BF808B1FDF769FD4FF4805020
:102B5000149014A93A48FFF7BFF808B1FDF75FFDDC
:102B60003748FFF79EFA08B1FDF759FD04200F9092
:102B7000102010900FA93248FFF7C3FA08B1FDF7F3
:102B80004EFD189518A92E481995FEF7DFFF08B1DC
:102B9000FDF745FD7020CDE900054FF48070CDE9CB
:102BA0000450029503950022694625480695FFF7D3
:102BB00012FA08B1FDF733FD2068816921F00801A0
:102BC0008161042269461E48FFF705FA08B1FDF746
:102BD00026FD2068816921F400618161082269462F
:102BE0001748FFF7F8F908B1FDF719FD2068C1692A
:102BF00021F00801C1610C2269461148FFF7EBF989
:102C000008B1FDF70CFD2068C16921F40061C161C4
:102C10000795089509954FF400500A95CDE90B509A
:102C200007A907480E95FEF767FF08B1FDF7F7FC07
:102C30000348FFF773F91BB030BD000000000140EE
:102C40007801002000B587B000211748009101915C
:102C50000291039104914FF080420591C0E9002157
:102C600040F2CF72C0E9021201618161FEF7B6FF46
:102C700008B1FDF7D4FC4FF48050009069460A4833
:102C8000FFF72AF808B1FDF7CAFC10200490802055
:102C9000059004A90448FEF759FF002801D0FDF76C
:102CA000BEFC07B000BD0000C001002030B593B0ED
:102CB00000240C940D940E94142107A80F94FDF792
:102CC0004AFB10941C2168461194FDF744FB274DE4
:102CD000254828600120C5E9010440F27750C5E984
:102CE00003042846AC61FEF779FF08B1FDF797FCB5
:102CF0004FF480500C900CA91C48FEF7EDFF08B172
:102D0000FDF78DFC1948FFF7CCF908B1FDF787FCFA
:102D1000042007901020089007A91448FFF7F1F944
:102D200008B1FDF77CFC402010908020119010A984
:102D30000E48FEF70BFF08B1FDF771FC7020009004
:102D400040F2D120CDE901040022694607480494ED
:102D5000FFF741F908B1FDF762FC2868816921F0AD
:102D60000801816113B030BD00040040080200205A
:102D700030B593B000250C950D950E95142107A83C
:102D80000F95FDF7E8FA10951C2168461195FDF79F
:102D9000E2FA274C25482060032060606020A06094
:102DA00040F27750C4E903052046A561FEF716FFFF
:102DB00008B1FDF734FC4FF480500C900CA91C486E
:102DC000FEF78AFF08B1FDF72AFC1948FFF769F9F9
:102DD00008B1FDF724FC042007901020089007A9F3
:102DE0001348FFF78EF908B1FDF719FC109510A9EB
:102DF0000F481195FEF7AAFE08B1FDF710FC7020F0
:102E0000CDE9000502950022694609480495FFF7BF
:102E1000E2F808B1FDF703FC2068816921F00801A0
:102E200081610348FFF77AF813B030BD0008004015
:102E30005002002030B59BB00024149415941694D1
:102E400014210FA81794FDF786FA18941C216846E0
:102E50001994FDF780FA202107A8FDF77CFA394D77
:102E600037482860032068606020A86040F27750EF
:102E7000C5E903046C612846AC61FEF7AFFE08B1FA
:102E8000FDF7CDFB4FF48050149014A92D48FEF7A8
:102E900023FF08B1FDF7C3FB2A48FFF702F908B189
:102EA000FDF7BDFB04200F90102010900FA92548BE
:102EB000FFF727F908B1FDF7B2FB189418A92148CC
:102EC0001994FEF743FE08B1FDF7A9FB7020CDE988
:102ED00000044FF48070CDE9044002940394002272
:102EE000694618480694FFF776F808B1FDF797FB96
:102EF0002868816921F0080181610422694611482E
:102F0000FFF769F808B1FDF78AFB2868816921F4A9
:102F1000006181610794089409944FF400500A9469
:102F2000CDE90B4007A907480E94FEF7E5FD08B16F
:102F3000FDF775FB0348FEF7F1FF1BB030BD000045
:102F400000040140980200200C4810B50A490160B5
:102F50004FF4E1314160002181600C22C160C0E981
:102F600004128161C161FFF72FFA002803D0BDE888
:102F70001040FDF754BB10BD00440040E0020020AB
:102F8000FEE7FEE770477047FEF764BA30B593B0CE
:102F900030216846FDF7DFF914210CA8FDF7DBF9B5
:102FA0001E480025016841F080510160006800F072
:102FB000805011901A48016841F480410160006816
:102FC000022400F480401190012000900004019040
:102FD0008001CDE90640082008904FF4A870CDE9A3
:102FE000090404200B906846FEF7BAFB08B172B6DC
:102FF000FEE70CA90F2081E831004FF4A0500F909C
:103000004FF48050109005210CA8FEF7BFFA00285D
:1030100001D072B6FEE713B030BD00004038024068
:10302000007000400248016841F47001016070477F
:1030300088ED00E00148FEF7BEBE00000802002057
:10304000F0B50268254C264D264E274F274B4FF0F2
:10305000804CA04209D0604507D0A84205D0B042BC
:1030600003D0B84201D0984204D122F0700E4A68D1
:1030700042EA0E02A0421BD0604519D0A84217D0E8
:10308000B04215D0B84213D0984211D0184DA84282
:103090000ED0184DA8420BD0174DA84208D0174D9E
:1030A000A84205D0164DA84202D0164DA84203D121
:1030B00022F44075CA682A434D6922F080022A43EF
:1030C00002608A68C2620A688262A04201D09842A5
:1030D00001D10969016301214161F0BD0000014096
:1030E0000004004000080040000C004000040140C3
:1030F00000400140004401400048014000180040E9
:10310000001C00400020004010B5846842EA032201
:1031100024F47F440A432243826010BD826822F077
:1031200070020A4342F0070181607047F0B5026AFD
:1031300022F001020262036A42688469124E24F09E
:1031400073050C682C4323F002058B682B430D4D4F
:10315000A84201D0B04205D123F00807CB683B4319
:1031600023F00403A84201D0B04205D14D6922F4F6
:10317000407215438A692A43426084614968416309
:103180000362F0BD0000014000040140F0B5026A96
:1031900022F010020262026A436884690D6824F416
:1031A000E64444EA05248D6822F0200242EA051232
:1031B0000F4D104EA84201D0B04206D1CF6822F088
:1031C000800242EA071222F04002A84201D0B04237
:1031D00007D14D6923F4406343EA85038D6943EACF
:1031E000850343608461496881630262F0BD000029
:1031F0000000014000040140F0B5026A22F4807230
:103200000262026A4368C46922F4007224F0730502
:103210000C68124E2C438D6842EA05220E4DA842DE
:1032200001D0B04206D1CF6822F4006242EA072200
:1032300022F48062A84201D0B04207D14D6923F444
:10324000405343EA05138D6943EA05134360C461A3
:103250004968C1630262F0BD000001400004014002
:1032600030B5026A22F480520262046A4268C3697D
:103270000D6823F4E64343EA05238D6824F40054E3
:1032800044EA0534084DA84202D0084DA84204D1B2
:103290004D6922F4804242EA85124260C361496866
:1032A0000164046230BD00000000014000040140E0
:1032B00070B5036800249A6822F070054A682A43B2
:1032C00022F007050A682A439A604A6812F00F0F35
:1032D00031D11211082A2ED2DFE802F02E2E2E2E26
:1032E0000B2127040B69D1E902210068FFF70CFFCD
:1032F00022E00A68052A10D00268136A156A25F0D0
:103300000105156202689569096925F0F00545EA2D
:1033100001119161006803620EE0012070BD0A692D
:103320008968006800F00AF806E00A6989680068A0
:1033300000F015F800E00124204670BD10B5036AC6
:10334000046A24F001040462846924F0F00444EA6D
:10335000021423F00A020A438461026210BD10B510
:10336000036A23F0100303628369046A23F4704341
:1033700043EA023224F0A00343EA011182610162B0
:1033800010BD10B5806B0021C185C184FEF7E6FE3B
:1033900010BD01680C3151E8002F22F4907241E811
:1033A0000023002BF5D10168143151E8002F22F0E1
:1033B000010241E80023002BF5D1016B012909D15D
:1033C00001680C3151E8002F22F0100241E800237F
:1033D000002BF5D1202180F83E10002101637047B9
:1033E00008B590F83E10222901D0022008BD82685D
:1033F0004FF480539A4201D1016921B1816A9A4206
:103400001BD04AB10AE00268816A5268C2F308021E
:103410000A80816A891C08E0026972B102685268F8
:1034200002F07F020A70816A491C8162C18D491EC7
:103430000904090CC18503D019E002685268F1E75C
:103440000168CA6822F02002CA600168CA6822F4D2
:103450008072CA6001684A6922F001024A61202133
:1034600080F83E10016B012903D0FFF755F80020CA
:1034700008BD0021016301680C3151E8002F22F0E2
:10348000100241E80023002BF5D101680A68D2063A
:1034900002D50A6849680091818DFEF75EFEE6E775
:1034A00070B5044600680169E26821F44051114397
:1034B00001612169A068E269084361691143084319
:1034C0002168CA6849F20C639A430243CA602068C3
:1034D0004169A26921F44071114341613149206879
:1034E000884202D03049884202D1FEF7F9F801E063
:1034F000FEF7E6F8E2690023192164253226B2F5C9
:10350000004F626828D0A0FB0101930F9200FCF7E6
:10351000ABFE0146B0FBF5F06FF01802504301EB33
:10352000800006EB0010B0FBF5F000F0F002B1FBFC
:10353000F5F002EB0012B1FBF5F06FF01803584301
:1035400001EB800006EB0010B0FBF5F000F00F007F
:1035500021681044886070BDA0FB010192185B4196
:10356000FCF782FE0146B0FBF5F00201B1FBF5F07D
:103570006FF01803584301EB800006EBC000B0FB6E
:10358000F5F000F0F80002EB4002B1FBF5F0584313
:1035900001EB800006EBC000B0FBF5F000F0070087
:1035A000D6E7000000100140001401400148FEF77A
:1035B000D7BD0000E0020020FEE70907090E002841
:1035C00004DB00F1E02080F80014704700F00F00E9
:1035D00000F1E02080F8141D7047FDF743FFFFF76E
:1035E000D5FCFFF715FAFFF7E5F9FFF7D1F9FFF77B
:1035F000ABFCFEF795FFFFF75BF8FFF7F3F8FFF77B
:10360000A3F9FFF71FFBFFF751FBFFF713FCFFF7D1
:1036100075FAFFF7ADFBFEE74FF04070E1EE100AE0
:10362000704700061016000610160000000000008B
:10363000000001020304060708090000000001025F
:103640000304000064360008000000201800000099
:10365000C40100087C36000818000020304D00002E
:10366000E001000800000000000000000100000070
:0C36700010000000000000000024F40026
:040000050800018965
:00000001FF
