:020000040800F2
:1000000018500020E9020008F711000853110008F9
:10001000F51100081F060008011400080000000088
:10002000000000000000000000000000290200089D
:100030002106000800000000850200085D1200088B
:100040000303000803030008030300080303000878
:100050000303000803030008030300080303000868
:100060000303000803030008030300080303000858
:100070000303000803030008030300080303000848
:100080000303000803030008030300080303000838
:100090000303000803030008030300080303000828
:1000A000030300081D1300080303000803030008EE
:1000B0000303000803030008030300080303000808
:1000C00003030008030300080303000803030008F8
:1000D00003030008030300080303000803030008E8
:1000E00003030008030300080303000803030008D8
:1000F00003030008030300080303000803030008C8
:1001000003030008030300080303000803030008B7
:1001100003030008030300080303000803030008A7
:100120000303000803030008030300080303000897
:100130000303000803030008030300080303000887
:100140000303000803030008030300080303000877
:100150000303000803030008030300080303000867
:100160000303000803030008030300080303000857
:100170000303000803030008030300080000000055
:10018000030300080303000800F002F800F03CF845
:100190000AA090E8000C82448344AAF10107DA45E2
:1001A00001D100F031F8AFF2090EBAE80F0013F0F8
:1001B000010F18BFFB1A43F0010318473C2C000045
:1001C0005C2C0000103A24BF78C878C1FAD85207D6
:1001D00024BF30C830C144BF04680C6070470000C1
:1001E0000023002400250026103A28BF78C1FBD840
:1001F000520728BF30C148BF0B6070471FB502F0DF
:10020000B9FD1FBD10B510BD00F0D0F91146FFF7C4
:10021000F5FF01F006F900F0EEF903B4FFF7F2FF85
:1002200003BC00F0F5F900002C4B19680868B0E831
:10023000F04F80F30988BFF36F8F4FF0000080F319
:10024000118870470000000008480068006880F3CB
:1002500008884FF0000080F3148862B661B6BFF3DF
:100260004F8FBFF36F8F00DF00BF00BF08ED00E0CE
:10027000DFF80C00016841F470010160704700BFB5
:1002800088ED00E0EFF30980BFF36F8F134B1A681E
:100290001EF0100F08BF20ED108A20E9F04F10600B
:1002A00009B44FF0500080F31188BFF34F8FBFF3B4
:1002B0006F8F01F07BFF4FF0000080F3118809BCC5
:1002C00019680868B0E8F04F1EF0100F08BFB0ECD6
:1002D000108A80F30988BFF36F8F704718000020E1
:1002E000EFF3058070470000094880470948004740
:1002F000FEE7FEE7FEE7FEE7FEE7FEE7FEE7FEE7D6
:10030000FEE7FEE704480549054A064B7047000032
:100310000D13000889010008184A00201850002019
:10032000184C0020184C002053EA020C00F06980A1
:100330002DE9F04B4FF00006002B1FBFB3FA83F5F9
:1003400003FA05F424FA05F65E4012BF1643B2FA2A
:1003500082F502FA05F4C5F120051EBF22FA05FC5C
:1003600044EA0C04203556EA044C4FEA144418BF02
:10037000641C4FF000084FF00009904271EB030C31
:1003800039D3002919BFB1FA81F701FA07F6B0FA9B
:1003900080F700FA07F6C7F120071EBF20FA07FC16
:1003A00046EA0C062037B6FBF4FCA7EB0507103F26
:1003B00007F01F0BCBF120060CFA0BFB2CFA06F60C
:1003C00044BFB3460026202FA4BF5E464FF0000B6B
:1003D0005BEA060C08BF4FF0010B19EB0B09ABFBF6
:1003E000027C48EB0608C01B06FB02CC0BFB03CCCF
:1003F00071EB0C01C1E70B46024641464846BDE899
:10040000F08B13B54FF000004FF00001AFF3008008
:10041000BDE81C407047032A40F2308010F0030C06
:1004200000F0158011F8013BBCF1020F624498BF47
:1004300011F801CB00F8013B38BF11F8013BA2F1E4
:10044000040298BF00F801CB38BF00F8013B11F05F
:10045000030300F05780083AC0F0088051F8043BCD
:10046000083A51F804CBA0E80810F5E7121D5CBF6C
:1004700051F8043B40F8043BAFF30080D20724BF9F
:1004800011F8013B11F801CB48BF11F8012B24BF33
:1004900000F8013B00F801CB48BF00F8012B704782
:1004A00002F0FF0343EA032242EA024200F05EB890
:1004B0004FF0000200B5134694469646203922BFFD
:1004C000A0E80C50A0E80C50B1F12001BFF4F7AF48
:1004D000090728BFA0E80C5048BF0CC05DF804EB2A
:1004E000890028BF40F8042B08BF704748BF20F898
:1004F000022B11F0804F18BF00F8012B7047704796
:100500007047704710B5203AC0F00B80B1E8185022
:10051000203AA0E81850B1E81850A0E81850BFF4ED
:10052000F5AF5FEA027C24BFB1E81850A0E818508C
:1005300044BF18C918C0BDE810405FEA827C24BFE0
:1005400051F8043B40F8043B08BF7047D20728BF6E
:1005500031F8023B48BF11F8012B28BF20F8023BBD
:1005600048BF00F8012B70474FF000020429C0F08B
:10057000128010F0030C3FF49DAFCCF1040CBCF1E1
:10058000020F18BF00F8012BA8BF20F8022BA1EB27
:100590000C01FFF78FBF5FEAC17C24BF00F8012B7D
:1005A00000F8012B48BF00F8012B7047754600F09A
:1005B0002BF8AE4605006946534620F007008546F5
:1005C00018B020B5FFF79EFEBDE820404FF00006B2
:1005D0004FF000074FF000084FF0000B21F007012B
:1005E000AC46ACE8C009ACE8C009ACE8C009ACE86E
:1005F000C0098D46704710B50446AFF30080204611
:10060000BDE81040FFF709BE00487047B44900201C
:1006100001491820ABBEFEE7260002007047FEE746
:10062000704700002DE9F84FDFF8BCA1002201253A
:1006300003264FF00F090AF1040BAAF1040E00BFC4
:100640000B6805FA02F42340A34270D10F7907F03A
:100650000307012F01D0022F16D187684FEA420805
:1006600006FA08FC27EA0C07D1F80CC00CFA08FCC3
:100670004CEA070CC0F808C04768A7430C79C4F3DC
:10068000001494403C4344600C79E443A4070AD02E
:10069000C4684FEA420C06FA0CF7BC438F6807FAAD
:1006A0000CF72743C7600C7904F00304022C12D125
:1006B000D40800EB840CDCF820405707FF0E09FA41
:1006C00007F824EA0804D1F8108008FA07F848EA85
:1006D0000408CCF8208004684FEA420C06FA0CF7B4
:1006E000BC430F7907F0030707FA0CF727430760AD
:1006F0004C6814F4403F70D03C4C276847F4804766
:100700002760246822F0030704F480440094384CE6
:1007100007EB040CDCF8084897074FEA177809FA4A
:1007200008F7BC43334FB84202D1002724E054E01D
:10073000314FB84201D101271EE0304FB84201D1FC
:10074000022719E02E4FB84201D1032714E02D4FA4
:10075000B84201D104270FE02B4FB84201D1052741
:100760000AE02A4FB84201D1062705E0284FB842D7
:1007700001D1072700E0082707FA08F72743CCF83C
:100780000878DAF800405746D1F804C09C435FEA85
:10079000CC2C00D51C433C60DBF800405F46D1F810
:1007A00004C09C435FEA8C2C00D51C433C60DEF8FF
:1007B00000407746D1F804C09C435FEA8C3C00D5EA
:1007C0001C433C60084F083F3C68D1F804C09C4380
:1007D0005FEACC3C00D51C433C60521C102AFFF45D
:1007E0002FAFBDE8F88F0000083C014044380240BC
:1007F00000300140000002400004024000080240B6
:10080000000C024000100240001402400018024098
:10081000001C0240426921EA02030A4043EA024105
:10082000816170470AB1816170470904FBE70000EC
:100830000148806870470000080000200248816875
:100840000278114481607047080000200B4810B501
:10085000016841F400710160016841F48061016048
:10086000016841F480710160032000F099F80F20C5
:1008700000F006F800F04AF8002010BD003C0240ED
:1008800030B505461C4887B00024016841F00101DD
:100890000160006806A900F00100009001A800F0C6
:1008A0002BF900F049F915494000B0FBF1F115486A
:1008B000134A491E026040F2E732C0E90324C0E94E
:1008C0000114846100F030FB040012D10D4800F0E7
:1008D00059FB04000DD1192000F034F8102D07D277
:1008E00000222946192000F03BF80748056000E087
:1008F000012407B0204630BD4438024040420F007A
:1009000000000140980000200C0000200C4882B03C
:10091000016841F480410160006800F4804000906B
:100920000748001F016841F0805101600068002203
:1009300000F0805000900F21901E02B000F010B81F
:1009400044380240002809DB00F01F0201219140D9
:100950004009800000F1E020C0F80011704700005D
:10096000F0B40E4B1B680C46C3F30223C3F107051A
:10097000042D00D90425191D072901D2002300E008
:10098000DB1E012606FA05F1491E214099409E40D2
:10099000761E16403143F0BC00F033BD0CED00E094
:1009A000064900F0070208684FF6FF03184040EAC6
:1009B0000220034A10430860704700000CED00E07D
:1009C0000000FA052DE9F0470E46050065D0DFF876
:1009D0001481D8F80000F7B200F00700B04207D247
:1009E00088F80070D8F8000000F00700B04254D139
:1009F00028683D4C810712D5400703D5206840F494
:100A0000E05020602878000703D5206840F460405B
:100A100020602068A96820F0F00008432060287852
:100A2000C0072DD0304968680839012812D0022843
:100A300013D0032811D00968890700292DDA21680D
:100A400021F0030101432160FFF7F2FE814641F2EC
:100A5000883A0EE009688903EFE709688901ECE745
:100A6000FFF7E6FEA0EB0901514502D90320BDE8DE
:100A7000F0872068696800F00C00B0EB810FEFD1BF
:100A8000D8F80010404601F00701B14207D90770BD
:100A9000006800F00700B04201D00120E7E72878A5
:100AA000400705D52068E96820F4E050084320603D
:100AB0002878000706D52068296920F4604040EABC
:100AC000C100206000F048F82168084AC1F3031112
:100AD000515CC8400649086006480068FFF7D0FE30
:100AE0000020C4E7003C024008380240C82D00083E
:100AF000140000200C0000200F2202600C4A136832
:100B000003F003034360136803F0F003836013688A
:100B100003F4E053C36012684FF4E05303EAD202D7
:100B200002610448006800F0070008607047000098
:100B300008380240003C0240044805490068096842
:100B4000044AC1F34231515CC84070471400002090
:100B500008380240D82D0008154810B5006810F07C
:100B60000C02144813D04110042A0FD0082A0ED1C9
:100B70000F4C241F2268236802F03F025B0207D556
:100B80002068C0F38810A0FB010106E0084610BDF4
:100B90002168C1F38811A1FB00010023FFF7C4FB0A
:100BA0002168C1F30141491C4900B0FBF1F010BDBF
:100BB000083802400024F4002DE9F84F04006ED0FC
:100BC0002078DFF84C93C007A9F104054AD009F159
:100BD00004000168C1F38101012908D00068C0F355
:100BE000810002280AD1D9F80000400206D5286801
:100BF000800337D560680028E1D033E06068B0F545
:100C0000803F10D0B0F5A02F286810D020F480309D
:100C10002860286820F4802028606068A8B1FFF769
:100C200007FE06460DE0286840F48030F4E740F403
:100C300080202860F7E700BFFFF7FAFD801B6428DB
:100C400073D828688003F7D50CE0FFF7F1FD06465E
:100C500005E000BFFFF7ECFD801B6428F0D8286892
:100C60008003F7D42078DFF8AC8280074FF0000AC9
:100C70003ED5A748001D016811F00C0F08D0006890
:100C8000C0F3810002280BD1D9F80000400207D43C
:100C90002868800716D5E068012800D112E033E10A
:100CA000E068B8B10120C8F80000FFF7C1FD0646B2
:100CB00005E000BFFFF7BCFD801B0228C0D82868F4
:100CC0008007F7D52868216920F0F80040EAC100C4
:100CD00028600DE0C8F800A0FFF7AAFD064604E072
:100CE000FFF7A6FD801B02281FD828688007F7D4CD
:100CF0002078000722D5864F87486169703771B127
:100D000001210160FFF794FD064604E0FFF790FD26
:100D1000801B022809D838688007F7D50EE0C0F894
:100D200000A0FFF785FD064605E082E0FFF780FDA5
:100D3000801B02287DD838688007F7D420784007C8
:100D400068D5DFF8CCB100270BF13C0BDBF80000D5
:100D5000C0000BD4DBF8001041F08051CBF800103C
:100D6000DBF80000012700F0805000906B4E3068E7
:100D7000C00510D4306840F480703060FFF758FD33
:100D8000009005E0FFF754FD0099401A022850D862
:100D90003068C005F6D55E4EA0686C3601280FD0CD
:100DA0000528306810D020F001003060306820F055
:100DB00004003060A068B8B1FFF73AFD00900FE082
:100DC000306840F00100F4E740F004003060F7E7DD
:100DD000FFF72EFD0099411A41F28830814266D812
:100DE00030688007F4D50EE0FFF722FD009007E0A1
:100DF000FFF71EFD0099411A41F28830814256D812
:100E000030688007F4D42FB1DBF8001021F0805156
:100E1000CBF80010A069C8B33D49091D0968C1F3AA
:100E2000810102294AD00228504607D0C8F8600044
:100E300000E03CE0FFF7FCFC04463BE04746C8F816
:100E40006000FFF7F5FC064605E000BFFFF7F0FC89
:100E5000801B02282BD828688001F7D4D4E9070129
:100E60000843A16A2E4A490802EB0141626A41EA3D
:100E70008211084394F82C1040EA0161C9F800106F
:100E800001203866FFF7D4FC044606E03EE000BFD0
:100E9000FFF7CEFC001B022809D828688001F7D58F
:100EA00034E000BFFFF7C4FC001B022802D9032076
:100EB000BDE8F88F28688001F4D427E00128F7D036
:100EC000D9F80000E26900F4800191421CD1226A45
:100ED00000F03F01914217D147F6C071626A0140AC
:100EE000B1EB821F10D1A26A4FF0FF3300F4403102
:100EF00003EB5202B1EB024F06D194F82C1000F034
:100F00007060B0EB016F01D00120D1E70020CFE786
:100F10000438024000004742800E47420070004003
:100F20000000FFFF7047704710B5040003D094F82D
:100F30003D0010B107E0012010BD002084F83C0006
:100F4000204600F01EF8022084F83D00211D206894
:100F500000F0EAF9012084F8460084F83E0084F8A5
:100F60003F0084F8400084F8410084F8420084F88F
:100F7000430084F8440084F8450084F83D000020D4
:100F800010BD704790F83D10012901D00120704735
:100F9000022180F83D100168CA6842F00102CA606F
:100FA00000681149884214D0B0F1804F11D00F4928
:100FB00088420ED00E4988420BD00E49884208D094
:100FC0000D49884205D00D49884202D00C4988421B
:100FD00004D1816801F00701062903D0016841F0BE
:100FE0000101016000207047000001400004004042
:100FF00000080040000C0040000401400040014097
:101000000018004070472DE9F04104460068C668AA
:1010100005694FF00007A90713D5B10711D5F91ECF
:10102000016101202077206880698007204602D076
:10103000FFF7E8FF04E000F07EF8204600F07CF8BF
:101040002777680716D5700714D521686FF004005C
:101050000861022020772068806910F4407F2046D4
:1010600002D0FFF7CFFF04E000F065F8204600F063
:1010700063F82777280715D5300713D521686FF057
:1010800008000861042020772068C0698007204696
:1010900002D0FFF7B7FF04E000F04DF8204600F063
:1010A0004BF82777E80616D5F00614D521686FF0BF
:1010B00010000861082020772068C06910F4407F84
:1010C000204602D0FFF79EFF04E000F034F82046EF
:1010D00000F032F82777E80708D0F00706D021683B
:1010E0006FF001000861204600F028F8280608D5B6
:1010F000300606D521686FF0800008612046FFF7B2
:1011000011FF680608D5700606D521686FF040000B
:101110000861204600F01CF8A8060AD5B00608D5DC
:1011200021686FF0200008612046BDE8F041FFF71C
:10113000FABEBDE8F08170477047000000680349BF
:10114000884201D1FFF77ABB7047000000000140E0
:101150007047FEE710B5074A0021074800F0AAF9DA
:10116000064C044A002120602432054800F0A2F910
:10117000606010BD802D0008F911000800000020FB
:101180001912000870B586B014216846FFF790F96F
:1011900016480024016841F020010160016801F057
:1011A00020010591016841F080010160016801F0B2
:1011B00080010591016841F00101016000680C4E59
:1011C00000F001004FF4C06505900022294630462A
:1011D000FFF728FB01200095CDE901046946304660
:1011E0000394FFF71FFA06B070BD000030380240CC
:1011F00000140240FEE7FEE7064D4FF4FA740023A8
:1012000004220A21686801F049FB204600F016F923
:10121000F5E700000000002008B500200E4C471E36
:101220004FF40075261540F6B838009039463B4615
:101230006A46002001F01AFC00980A2807D12946C6
:101240002046FFF7E7FA31462046FFF7E3FA40462B
:1012500000F0F4F8EAE700000014024010B54FF087
:10126000E020006901F08AFB012803D0BDE81040AE
:1012700001F048B810BD000030B593B03021684689
:10128000FFF716F914210CA8FFF712F91D480025E5
:10129000016841F080510160006800F080501190B9
:1012A0001948016841F4804101600068022400F49B
:1012B0008040119001200090000401908001CDE950
:1012C000064008AA0420A82182E813000B90684673
:1012D000FFF772FC08B172B6FEE70CA90F2081E897
:1012E00031004FF4A0500F904FF480501090052122
:1012F0000CA8FFF767FB002801D072B6FEE713B019
:1013000030BD0000403802400070004002480168D3
:1013100041F470010160704788ED00E00148FFF77B
:1013200072BE000098000020F0B50268294C2A4DDA
:101330002A4E2B4F2B4B4FF0804CA04209D06045DA
:1013400007D0A84205D0B04203D0B84201D098429D
:1013500004D122F0700E4A6842EA0E02A0421BD06D
:10136000604519D0A84217D0B04215D0B84213D06A
:10137000984211D01C4DA8420ED01C4DA8420BD053
:101380001B4DA84208D01B4DA84205D01A4DA842BB
:1013900002D01A4DA84203D122F44075CA682A43EC
:1013A0004D6922F080022A4302608A68C2620A689C
:1013B0008262A04201D0984201D1096901630121F2
:1013C00041610169C90703D0016921F0010101618F
:1013D000F0BD000000000140000400400008004093
:1013E000000C004000040140004001400044014066
:1013F0000048014000180040001C00400020004050
:10140000FEE70907090E002804DB00F1E02080F860
:101410000014704700F00F0000F1E02080F8141D68
:101420007047FFF713FAFFF727FFFFF7ABFE00F057
:1014300013F8FFF78FFE00F021F8FEE710B5EFF389
:10144000058111B16FF0050403E0002408B100F03C
:10145000F9FD204610BD0000EFF3058010B16FF0DC
:10146000050070470448016811B14FF0FF30704724
:1014700001210160002070476800002010B5EFF3E3
:10148000058010B16FF0050010BD08480168012902
:1014900002D04FF0FF3010BD054A002182F8141D24
:1014A0000221016000F036FE002010BD680000201F
:1014B0000BE000E02DE9FF414FEA01034FF000058A
:1014C000EFF30581039549BB40B380271821002421
:1014D0004AB3166806B1344696691EB13146761E87
:1014E000382E02D21679F60703D0002004B0BDE8EA
:1014F000F081566906B1B708D2F808C0BCF1000FF8
:101500000DD0D5685C2D18D312693AB136B18DE88B
:1015100006103A46214601F096F903900DE0D66890
:101520005EB912694AB903AACDE90012BAB22146DE
:1015300001F05CF9012800D003950398D6E700007C
:101540002DE9F041134C0F460546E6682068001D62
:1015500000F044FC681C07D137B12168BDE8F041B8
:101560000D48091D00F08ABC20683544B54245602D
:10157000216805D2A06BBDE8F041091D00F066BCF2
:10158000606B091D00F062FCA06A854200D2A56272
:10159000BDE8F08118000020D00500202DE9F041C1
:1015A000054600F077FC2D4CA068401CA060206828
:1015B0002B4F10B1606930B32BE02560A068012883
:1015C00027D1002606EB860007EB800000F030FCF8
:1015D000761C382EF6D3234800F02AFC214814301C
:1015E00000F026FC1F48283000F022FC1D483C304B
:1015F00000F01EFC1B48503000F01AFC19486063D4
:101600001430A06305E02068E96AC06A884200D807
:101610002560606A401C60626864E86A21698842EB
:1016200000D9206100EB800007EB8000291D00F04D
:1016300025FC00F04FFC606900280CD02068E96AA6
:10164000C06A884207D208494FF080500860BFF353
:101650004F8FBFF36F8FBDE8F081000018000020AE
:10166000200100208005002004ED00E038B500F0E6
:1016700011FC104C2068C8B90F4800F0D9FB0E4887
:10168000143000F0D5FB0C48E060143020610A4BA8
:101690000020F03B009003F1500210210A2000F0DE
:1016A00047FE206010B105A100F096FCBDE838406F
:1016B00000F010BC54000020D4060020546D72517C
:1016C0000000000030B4026C0B46002A0BD0C16849
:1016D0001144C1608468A14201D30168C16030BC7B
:1016E0001846FEF798BE30BC70472DE9F041856B77
:1016F000174604460026026C82B1C7B1E068FEF7C7
:101700008AFEE168206C091AE1602268914202D2E7
:10171000A168081AE060022F16D017E02068A8B967
:10172000A06801F0E9F906460020A0600EE06068BC
:10173000FEF771FE216C606808446060A168884211
:1017400004D32068606001E005B16D1E6D1CA563C7
:101750003046BDE8F08110B5044690F8590058B104
:1017600001280CD002280FD0502080F31188BFF33D
:101770004F8FBFF36F8FFEE7206B00F0BFFB20465B
:10178000BDE8104000F0BABB10BD000010484FF497
:101790007051420706D0C01D0D4920F00700411AC4
:1017A000C1F570510B4A00230144C2E90003083916
:1017B000183A21F0070111604B600B600B1AC0E969
:1017C000001393604FF00040536050617047000079
:1017D000B40D002084000020144E154CA6F29C4746
:1017E0004FF08058DFF84C9012E000BF00F052FB41
:1017F000F068C568281D00F0F1FAA068401EA060DE
:101800006068401E606000F065FB2846FFF7A3FF9C
:1018100060680028EAD138680128F9D9C9F8008041
:10182000BFF34F8FBFF36F8FF2E70000BC050020BE
:101830001800002004ED00E070B51D46049C51B175
:10184000C4F80020C4E90F010121204600F0A4FDE6
:1018500084F84C5070BD2460F4E700002DE9F05F7F
:101860008846DDE90B941546834691009A460A9E08
:10187000A522206BFEF714FE6FF00301206B01EB35
:101880008501084420F00707780707D0502080F32F
:101890001188BFF34F8FBFF36F8FFEE70025B8F1BC
:1018A000000F0FD05FF00000221818F8001082F827
:1018B000341018F8001011B1401C1028F4D384F82B
:1018C000435001E084F83450382E00D33726E662C6
:1018D000C4E91365201D00F0B6FA04F1180000F009
:1018E000B2FA2461C6F138006462A061656584F8CB
:1018F000585052465946384600F05AFA2060B9F11D
:10190000000F01D0C9F80040BDE8F09F30B5114983
:1019100000E011460A688242FBD34B685C1884429F
:1019200003D1406818444860084643681C18944234
:1019300009D1084C183C2468A24209D052681A44C4
:1019400042600A6812680260814200D0086030BDBF
:101950000460F9E78400002070B5002441600B4D5D
:101960000061914206D8D11A8269914206D2011DC6
:10197000286907E09A4203D2994201D3012403E087
:10198000011DE86800F062FA204670BD5400002096
:1019900010B5044600F07EFAA06B28B15FF0000499
:1019A00000F098FA204610BD0124F9E730B589B05F
:1019B0003C4D6EE00498002806DADDE90601059A40
:1019C00090470498002864DB069C606910B1201DD4
:1019D00000F004FA03A800F0D7F8024604980A2899
:1019E00057D2DFE800F00505052D334A05052D33F4
:1019F00094F8280040F0010084F828000599A069B7
:101A0000059B01442046FFF7A7FF68B3216A2046E3
:101A1000884794F8280040073BD50020009005989F
:101A2000A169002342181946204601F06FF9D8B980
:101A3000502080F31188BFF34F8FBFF36F8FFEE705
:101A400014F8280F20F00100207022E094F82800FC
:101A500040F0010084F828000598A06128B18118A1
:101A600013462046FFF778FF13E0502080F31188DB
:101A7000BFF34F8FBFF36F8FFEE794F82800810705
:101A800003D4204600F03AFA03E020F0010084F885
:101A90002800002204A9286800F0D2FD002889D17E
:101AA00009B030BD540000202DE9FC410F46054629
:101AB00000F074FB01A800F067F80446019818B123
:101AC00001F092F8BDE8FC81254EAFB130690068A5
:101AD000D0B30027291B3A46306800F091FA01F094
:101AE00083F80028EED11F494FF080500860BFF303
:101AF0004F8FBFF36F8FE5E7A542EBD801F074F885
:101B0000F0682746C068C468201D00F067F994F8A3
:101B10002800410719D5A0692B4641193A462046AD
:101B2000FFF71AFFA8B100200346014600902A469D
:101B3000204601F0EBF860B9502080F31188BFF324
:101B40004F8FBFF36F8FFEE707E020F0010084F8AE
:101B50002800216A20468847B4E70127BAE7000039
:101B60005400002004ED00E00648416B096829B1EB
:101B7000416BC968C9684968816270474FF0FF319D
:101B8000FAE700001800002070B5054600F004FFD9
:101B9000064E0446B068844203D200F009F80120E2
:101BA00000E0002028602046B46070BD5400002092
:101BB000F8B5194D20E0C068C4680668201D00F023
:101BC0000DF9216A2046884794F82800400713D56C
:101BD000A0693044B04206D924616060211DE868E4
:101BE00000F034F908E00020034601460090324638
:101BF000204601F08BF838B1E86801680029DAD195
:101C00002969C5E90310F8BD502080F31188BFF39E
:101C10004F8FBFF36F8FFEE75400002008484068E5
:101C2000401C4FF0500080F3118804D0BFF34F8F59
:101C3000BFF36F8FFEE7BFF34F8FBFF36F8FFEE7EA
:101C40008C000020074CE068016841B1C0680021A9
:101C5000D0F80000FFF728FFFFF7A8FEF3E7012107
:101C60000020F7E7540000202DE9F041044600F081
:101C700011F994F9455004F1240609E0606A48B16D
:101C8000304600F079FF08B100F00AFA6D1E6DB21F
:101C9000002DF3DC4FF0FF3684F8456000F01AF9B0
:101CA00000F0F8F894F9445004F1100709E02069B5
:101CB00048B1384600F060FF08B100F0F1F96D1E40
:101CC0006DB2002DF3DC84F84460BDE8F04100F013
:101CD00001B900002DE9F0410546002700F05EFA49
:101CE000324E306808B9FFF751FD706905424ED198
:101CF000C5B3083568070ED005F00700C0F108002D
:101D00000544680707D0502080F31188BFF34F8F38
:101D1000BFF36F8FFEE72DB37068854237D8234835
:101D2000183001460C6801E020460C466168A94263
:101D300002D221680029F7D131688C4227D0076888
:101D40002168016060680837411B10290FD96019AC
:101D5000420708D0502080F31188BFF34F8FBFF3A4
:101D60006F8FFEE713E041606560FFF7CFFD6168AC
:101D70007068401A7060B268904200D2B0607069BA
:101D800001430020C4E90001F068401CF06000F04D
:101D90002BFF780707D0502080F31188BFF34F8FB7
:101DA000BFF36F8FFEE73846BDE8F0816C0000207E
:101DB00010B5031F4FF080741C601B1F21F0010140
:101DC0001960191F044B0B6014390A60091F6FF06A
:101DD000020244380A6010BD1D1C0008D0E901321F
:101DE00001699A60D0E901235A604A68824201D1B0
:101DF00082684A60002202610868401E0860086824
:101E000070470000034B036003F15C000860802012
:101E100010607047FC060020044B036003F15C0077
:101E200008604FF48070106070470000580900206F
:101E300000F108014FF0FF32C0E90112C1600161F9
:101E400000210160704700210161704730B50B68C7
:101E50005A1C02D000F1080202E0026904E02246A6
:101E6000546825689D42FAD953684B6099608A602E
:101E7000516008610168491C016030BD42684A60D8
:101E800093688B6093685960916008610168491C90
:101E900001607047502080F31188BFF34F8FBFF36C
:101EA0006F8F0A494868401C486001280CD10848D7
:101EB000006810F0FF0F07D0502080F31188BFF3A7
:101EC0004F8FBFF36F8FFEE7704700008C0000203C
:101ED00004ED00E00849486828B1401E486001D17F
:101EE00080F311887047502080F31188BFF34F8F23
:101EF000BFF36F8FFEE700008C00002070B5002854
:101F00002AD0164DA0F1080460686969084207D11B
:101F1000502080F31188BFF34F8FBFF36F8FFEE720
:101F200022683AB1502080F31188BFF34F8FBFF37E
:101F30006F8FFEE78843606000F030F96068696881
:101F4000084468602046FFF7E1FC2869401C2861CE
:101F5000BDE8704000F048BE70BD00006C0000207D
:101F60004FF0E02000210161816105494FF47A7250
:101F70000968B1FBF2F1491E416107210161704717
:101F80001400002010B5FEF7ABF9114910280ED34C
:101F900000F1E02090F8F0030A78904207D2502038
:101FA00080F31188BFF34F8FBFF36F8FFEE70948AF
:101FB0000068896800F4E060884207D9502080F307
:101FC0001188BFF34F8FBFF36F8FFEE710BD000086
:101FD0008C0000200CED00E010B5084B002200BF83
:101FE00053F832401CB1521C082AF9D310BD43F8F3
:101FF000321003EBC201486010BD0000E000002079
:1020000070B515460E460446FFF744FF94F9441098
:102010000020491C01D184F8440094F94510491C62
:1020200001D184F84500FFF755FFA06B28B92A4677
:10203000314604F1240000F051F82046BDE870401C
:10204000FFF712BE10B5020014D00F48006B38B174
:10205000502080F31188BFF34F8FBFF36F8FFEE7DF
:1020600000F09CF800211046FFF76AFA00F0BCFD72
:10207000002807D105494FF080500860BFF34F8F0B
:10208000BFF36F8F10BD00001800002004ED00E0CA
:1020900002490A6A0260C96841607047180000205E
:1020A00001490120C86170471800002010B50C4696
:1020B00050B1094909681831FFF7C8FE2046BDE84C
:1020C00010400121FFF73CBA502080F31188BFF384
:1020D0004F8FBFF36F8FFEE71800002070B51446D6
:1020E0000D4668B10A4909681831FFF7C7FE0CB1FF
:1020F0004FF0FF3521462846BDE87040FFF720BA73
:10210000502080F31188BFF34F8FBFF36F8FFEE72E
:102110001800002030B587B00024039405AA04A954
:1021200003A80494FFF76EFEDDE903010094CDE9F6
:102130000110002315A11748059A00F084FB164DE5
:102140000028E8621FD000F0B1FD012809D0401C32
:1021500019D1502080F31188BFF34F8FBFF36F8FD9
:10216000FEE7502080F31188BFF34F8FBFF36F8FCE
:102170004FF0FF30A86201206861EC6007B0BDE855
:10218000304000F045B807B030BD000049444C4530
:1021900000000000D9170008180000200248016B59
:1021A000491C01637047000018000020164810B554
:1021B000016B11B10121C16110BD0021C161016933
:1021C000124A01E0B9B1491E01EB810352F82330F4
:1021D000002BF7D001EB810302EB830202F108042C
:1021E00053685B685360A34201D15B685360DA684F
:1021F0000260016110BD502080F31188BFF34F8F42
:10220000BFF36F8FFEE700001800002020010020C0
:102210001CB537480168374A914207D1502080F3F6
:102220001188BFF34F8FBFF36F8FFEE7006831490E
:10223000491E884207D1502080F31188BFF34F8F89
:10224000BFF36F8FFEE72C4908780190FF200870DC
:1022500008788DF800009DF800009DF8002000F03F
:10226000F000904207D0502080F31188BFF34F8FC9
:10227000BFF36F8FFEE79DF80000204C00F0500088
:1022800020700720A06005E09DF8002052008DF826
:102290000020401E9DF800201206F5D4A0600328FF
:1022A00007D0502080F31188BFF34F8FBFF36F8F9B
:1022B000FEE74FF44070A060019808700C48203091
:1022C000016841F470010160016841F070410160F2
:1022D000FFF746FE00206060FDF7CAFF084801686E
:1022E00041F040410160FDF7AFFF00201CBD000040
:1022F00000ED00E071C20F4100E400E08C0000201E
:1023000034EF00E010B5502080F31188BFF34F8FF9
:10231000BFF36F8F00F046FB18B104494FF08050B7
:102320000860002080F3118810BD000004ED00E07B
:1023300038B5049D18B153B1CAB181B120E0502025
:1023400080F31188BFF34F8FBFF36F8FFEE75020EC
:1023500080F31188BFF34F8FBFF36F8FFEE75020DC
:1023600080F31188BFF34F8FBFF36F8FFEE739B152
:10237000502080F31188BFF34F8FBFF36F8FFEE7BC
:1023800050241C46012384F846302B460094FFF766
:1023900053FA204638BD000070B50D46040025D024
:1023A000FFF778FDD4E90F20216802FB0011A1603E
:1023B0000021A163216861600A46D4E90F01401E33
:1023C00000FB0121E16021464FF0FF3001F8440F8E
:1023D000487004F110008DB1FFF72AFD04F12400CC
:1023E000FFF726FDFFF776FD012070BD502080F33A
:1023F0001188BFF34F8FBFF36F8FFEE7216900296C
:10240000F0D000F0B9FB0028ECD004494FF0805028
:102410000860BFF34F8FBFF36F8FE3E704ED00E079
:102420002DE9FF4782B01D468A464FF000080400A0
:1024300003D0BAF1000F08D011E0502080F31188CA
:10244000BFF34F8FBFF36F8FFEE7206C38B1502082
:1024500080F31188BFF34F8FBFF36F8FFEE7022D1C
:102460000AD1E06B012807D0502080F31188BFF318
:102470004F8FBFF36F8FFEE700F080FA3F4F4FF0B2
:1024800000094FF0805648B9049838B1502080F3C5
:102490001188BFF34F8FBFF36F8FFEE7FFF7FAFC92
:1024A000A06BE16B884207D3022D05D00498D0B110
:1024B000B8F1000F1AD01EE02A4651462046FFF719
:1024C00014F9616A19B104F1240000F055FB20B140
:1024D0003E60BFF34F8FBFF36F8FFFF7FBFC012010
:1024E00006B0BDE8F087FFF7F5FC22E06846FFF78D
:1024F000CFFD4FF00108FFF7EDFCFFF74FFEFFF7B0
:10250000C9FC94F94400401C01D184F8449094F92A
:102510004500401C01D184F84590FFF7DBFC04A97D
:10252000684600F029F930B12046FFF79DFB00F026
:102530005BFB0020D4E7FFF7ADFCA06BE16B8842AA
:1025400013D1FFF7C7FC04F110000499FFF7AEFDAB
:102550002046FFF789FB00F047FB00289ED13E6034
:10256000BFF34F8FBFF36F8F98E7FFF7B3FC2046A1
:10257000FFF77AFB00F038FB90E7000004ED00E085
:102580002DE9F0471F4690468946040003D0B9F173
:10259000000F08D011E0502080F31188BFF34F8F57
:1025A000BFF36F8FFEE7206C38B1502080F31188A5
:1025B000BFF34F8FBFF36F8FFEE7022F0AD1E06B9F
:1025C000012807D0502080F31188BFF34F8FBFF34D
:1025D0006F8FFEE7FFF7D6FC5020EFF3118680F3F4
:1025E0001188BFF34F8FBFF36F8FA06BE16B8842F1
:1025F00006D3022F04D0002086F31188BDE8F087AF
:1026000094F94550A06B3A4649462046FFF76DF8CD
:10261000681C04D06D1C84F845500120ECE7606A0A
:102620000028FAD004F1240000F0A6FA0028F4D023
:10263000B8F1000FF1D00121C8F80010EDE700005B
:102640002DE9F747002683B08A46040003D0BAF18B
:10265000000F08D011E0502080F31188BFF34F8F96
:10266000BFF36F8FFEE7206C38B1502080F31188E4
:10267000BFF34F8FBFF36F8FFEE700F07FF9DFF8F6
:10268000F4804FF000094FF0805748B9059838B1F1
:10269000502080F31188BFF34F8FBFF36F8FFEE799
:1026A000FFF7F8FBA56BC5B151462046FFF70AF8C6
:1026B0006D1EA563206950B104F1100000F05CFAB2
:1026C00028B1C8F80070BFF34F8FBFF36F8FFFF7CB
:1026D00001FC012006B0BDE8F087059808B11EB1E5
:1026E00006E0FFF7F7FB27E06846FFF7D1FC01267D
:1026F000FFF7F0FBFFF752FDFFF7CCFB94F9440026
:10270000401C01D184F8449094F94500401C01D14B
:1027100084F84590FFF7DEFB05A9684600F02CF829
:10272000002820460AD0FFF79FFA00F05DFA204605
:10273000FFF72EF90028B3D00020CBE7FFF728F9E8
:1027400090B104F124000599FFF7B0FC2046FFF793
:102750008BFA00F049FA0028A2D1C8F80070BFF344
:102760004F8FBFF36F8F9BE72046FFF77DFA00F096
:102770003BFA95E704ED00E02DE9F0410C46050039
:1027800011D0C4B1FFF786FB174BDA686E6820687A
:10279000911B471C17D02F681B6A9F4219D0964285
:1027A00017D8012410E0502080F31188BFF34F8F19
:1027B000BFF36F8FFEE7502080F31188BFF34F8F78
:1027C000BFF36F8FFEE70024FFF784FB2046BDE8D0
:1027D000F081884205D9401A20602846FFF758FC4E
:1027E000F1E700202060DCE7180000202DE9FF5F02
:1027F0008346DDE90E87994616468A469000FFF724
:1028000069FA05001CD05C20FFF764FA040014D0BC
:102810000020256384F85900CDE90240CDE9008706
:102820004B46324651465846FFF718F82046FEF709
:10283000B5FE012004B0BDE8F09F2846FFF75EFB1F
:102840004FF0FF30F6E7F0B585B0DDE90B640A9D87
:10285000A6B1DCB15C2700972663022684F8596094
:10286000002604AFCDE90246CDE90057FEF7F6FF9A
:102870002046FEF793FE049805B0F0BD502080F38B
:102880001188BFF34F8FBFF36F8FFEE7502080F3A7
:102890001188BFF34F8FBFF36F8FFEE72DE9F04133
:1028A0001F4690460D46012690B10446FFF7F2FA06
:1028B0000FB1606D386094F85800022184F8581008
:1028C000B8F1050F19D2DFE808F0230B0E1412003F
:1028D000502080F31188BFF34F8FBFF36F8FFEE757
:1028E000616D294301E0616D491C616510E00228BA
:1028F00001D065650CE0002634E0616D491C07D00D
:10290000502080F31188BFF34F8FBFF36F8FFEE726
:10291000012827D1201DFFF761FA154DE06A2969CA
:10292000884200D92861134900EB800001EB800048
:10293000211DFFF7A3FAA06A38B1502080F3118857
:10294000BFF34F8FBFF36F8FFEE7E06A2968C96A54
:10295000884207D908494FF080500860BFF34F8F75
:10296000BFF36F8FFFF7B6FA3046BDE8F081000085
:10297000180000202001002004ED00E00548416916
:1029800019B1006B18B10020704701207047022078
:1029900070470000180000200148C0687047000020
:1029A000180000202DE9F0412E4C0027206B28B1A3
:1029B000A069401CA0613846BDE8F081E668761C3D
:1029C000E66013D1606B006838B1502080F3118845
:1029D000BFF34F8FBFF36F8FFEE7606BA16B616337
:1029E000A063206A401C2062FFF7BEF8A06ADFF8EF
:1029F0007880864209D3606B0068A0B1606BC068C4
:102A0000C5686868864211D2A0622068C06A00EB7F
:102A1000800158F82100012800D90127E069002829
:102A2000C9D00127C7E74FF0FF30EDE7281DFFF7BA
:102A3000D5F9A86A18B105F11800FFF7CFF9E86ACF
:102A40002169884200D9206100EB800108EB8100F8
:102A5000291DFFF713FAE86A2168C96A8842CAD3B8
:102A60000127C8E718000020200100202DE9F041CF
:102A70001E46154688460746FFF70CFA1C4C206890
:102A800090F85800022814D02068416DB943416580
:102A90002168012081F858005EB101213046FEF71F
:102AA0004FFD14494FF080500860BFF34F8FBFF3C4
:102AB0006F8FFFF70FFAFFF7EDF915B12068406D42
:102AC0002860206890F85800022801D0002505E011
:102AD0002068416D21EA0801416501252168002037
:102AE00081F85800FFF7F6F92846BDE8F0810000AC
:102AF0001800002004ED00E070B504004FF0000164
:102B000033D01B4D2868844207D0502080F31188B1
:102B1000BFF34F8FBFF36F8FFEE7206D38B1401EBC
:102B20002065E36CE26A9A421FD040B11DE050205C
:102B300080F31188BFF34F8FBFF36F8FFEE7201D27
:102B4000FFF74CF9E06CE062C0F13800A061E06A88
:102B50002969884200D92861064900EB800001EB11
:102B60008000211DFFF78AF90121084670BD000091
:102B7000180000202001002070B5C068C46854B15E
:102B800004F118000646FFF729F9144D286B50B1DF
:102B90003146134815E0502080F31188BFF34F8F62
:102BA000BFF36F8FFEE7201DFFF718F9E06A296970
:102BB000884200D928610B4900EB800001EB8000BE
:102BC000211DFFF75BF9E06A2968C96A884202D9CA
:102BD0000120E86170BD002070BD000018000020D9
:102BE000A8050020200100202DE9F0472C4D0024ED
:102BF0002746286B38B1FFF74DF9286B401E286334
:102C0000286B40B146E0502080F31188BFF34F8F0E
:102C1000BFF36F8FFEE7A968224E0120D1B3A6F55E
:102C2000916980463068E0B1F068C46804F118002A
:102C3000FFF7D4F8201DFFF7D1F8E06A2969884230
:102C400000D9286100EB800109EB8100211DFFF70D
:102C500015F9E06A2968C96A8842E3D3C5F81C807F
:102C6000E0E70CB1FEF780FFAC694CB14FEA080613
:102C7000FFF798FE00B1EE61641EF9D10020A86153
:102C8000E86938B10849012738070860BFF34F8F5A
:102C9000BFF36F8FFFF71EF93846BDE8F0870000DD
:102CA00018000020A805002004ED00E010B586B053
:102CB000FEF7DCFC114C2068B8B1002003900490B2
:102CC00005AA04A903A8FFF7A7F8DDE9032102205C
:102CD0008DE8070000230AA10B48059AFFF7B3FD12
:102CE000606010B106B0012010BD502080F3118843
:102CF000BFF34F8FBFF36F8FFEE70000540000203B
:102D0000546D722053766300451C00082DE9FF4185
:102D10001E46134602000A9D4FF0000016D0144CC8
:102D20002768002F0FD0CDE900130292062917DA89
:102D3000FFF724FE02284FF000030FD0002269465F
:102D40002068FFF76DFB04B0BDE8F081502080F3F0
:102D50001188BFF34F8FBFF36F8FFEE72A46EEE770
:102D60000023324669463846FFF70AFCEBE70000CD
:102D7000540000204FF04070E1EE100A7047000050
:102D8000EC2D000800000000000000000000000022
:102D90000000000000020000180000000000000019
:102DA00000000000E02D000800000000000000000E
:102DB00000000000000000000002000028000000E9
:102DC0000000000000000000000000000000000003
:102DD00001020304060708090000000001020304C1
:102DE0006D796C65645461736B3032006465666143
:102DF000756C745461736B00182E0008000000207D
:102E000098000000C4010008B02E000898000020BF
:102E1000804F0000E00100080000000000000000FA
:102E20000100000010000000000000000024F40079
:102E30000000000000000000000000000000000092
:102E40000000000000000000000000000000000082
:102E50000000000000000000000000000000000072
:102E60000000000000000000000000000000000062
:102E70000000000000000000000000000000000052
:102E80000000000000000000000000000000000042
:102E90000000000000000000000000000000000032
:102EA0000000000000000000AAAAAAAA000000007A
:040000050800018965
:00000001FF
